:100000000C9481000C949E000C949E000C949E0015
:100010000C949E000C949E000C949E000C949E00E8
:100020000C949E000C949E000C949E000C949E00D8
:100030000C949E000C949E000C949E000C949E00C8
:100040000C949E000C949E000C949E000C949E00B8
:100050000C949E000C949E000C949E000C949E00A8
:100060000C949E000C949E00DD0AA50AE10AB10AD8
:10007000290B990AB50AB90A290BE50ABD0AC90A6A
:10008000E90A290B290B8D0A740AC10A290BC50A32
:10009000290BC90AEC0A290B950A140B290BF00A43
:1000A000290BF40AF80AFC0A290B000BCD0A040BF1
:1000B000080B0C0B290B9D0A290BA90AA10A910A0E
:1000C000AD0A100B290BD10AD50AC50AD90A740A40
:1000D000290B290B290B290B290B290B290B290B80
:1000E000290B290B290B290B290B290B290B290B70
:1000F000290B290B290B290B290B180B1C0B200B87
:10010000240B11241FBECFEFD8E0DEBFCDBF12E01D
:10011000A0E0B1E0E6E1FCE102C005900D92AE3452
:10012000B107D9F722E0AEE4B2E001C01D92AD3CC8
:10013000B207E1F70E94450C0C94090E0C940000E4
:10014000EF92FF921F93CF93DF93EC0184E68A83B3
:100150008AE08E871D8A84E690E09F8B8E8B80E2FA
:10016000888F80E991E09A8F898F88E090E09C8F5A
:100170008B8F8FE78D8F188219821B861A861B8AB8
:100180001C8A198A81E08A8B84E190E00E94A40C89
:10019000988B8F8710E08E85181784F4812F880F35
:1001A000990BEF84F888E80EF91E8AE090E00E942F
:1001B000520BF701918380831F5FEDCF8A81082E58
:1001C000000C990B0E94A40C9C838B831D82EE88EB
:1001D000FF88C701880F991F0E94A40C9F8F8E8FE4
:1001E000FC0120E030E02E153F0529F0119211921C
:1001F0002F5F3F4FF8CF20E034E03D872C871F82F0
:100200001E8224E030E039872887FC0111861086A1
:1002100018A2DF91CF911F91FF90EF900895CF9397
:10022000DF9381E290E00E94A40CEC010E94A00008
:10023000CE01DF91CF910895CF93DF93EC01EC8550
:10024000FD85FB87EA87DB01EE0FFF1F8E8D9F8DFB
:10025000E80FF91F8D919D91819391938D919C91C0
:1002600011970196B9F7DF91CF910895AF92BF92A0
:10027000CF92DF92EF92FF920F931F93CF93DF9372
:100280006C018B01DC011C96CD91DC911D971B96B6
:10029000DC93CE931A978AE090E00E94A40C7C0134
:1002A000580180E0F50111915F01112369F11A30C5
:1002B000A9F4C7010E94C50D9E01220F331FD6016C
:1002C0005E96ED91FC915F97E20FF31F918380831F
:1002D000F70111921A95E9F72196E3CF1D3271F4D7
:1002E000CC0FDD1FD6015E968D919C915F97C80F54
:1002F000D91F8FEF9FEF9983888306C0F701E80F1E
:10030000F11D10838F5FCECFC701DF91CF911F9179
:100310000F91FF90EF90DF90CF90BF90AF900C9433
:100320003C0D0E94E90B0E94F80B81E090E00E94D6
:10033000090ECF93DF93EC01E9896E817F81EE0F87
:10034000FF0B8F859889E80FF91F808191810E94AA
:100350007A0BE98968857985EE0FFF0B8F8598897F
:10036000E80FF91F808191810E947E0BE9896C85DD
:100370007D85EE0FFF0B8F859889E80FF91F80812F
:1003800091810E94820BE9896A857B85EE0FFF0BC4
:100390008F859889E80FF91F80819181DF91CF9136
:1003A0000C94860B0F931F93CF93DF93EC01E98995
:1003B000EE0FFF0B8F859889E80FF91F00811181DF
:1003C000C8010E946A0B9F838E83C8010E946E0B36
:1003D00099878887C8010E94720B9D878C87C80106
:1003E0000E94760B9B878A87DF91CF911F910F9197
:1003F0000895FC01268D378DA285B385AA0FBB1FFA
:10040000A20FB31F6C9112965C91129714964C91A7
:10041000149716968C9180A386819781DC011296A1
:10042000AA0FBB1FA20FB31F0197861B910967FD7F
:1004300093958D939C9380859185850F911D57FD94
:100440009A9591878087840F911D47FD9A95248501
:1004500035852817390720F482E591E00E94910143
:10046000828593850496938782870895CF93DF933F
:10047000DC015E968D919C915F971696ED91FC91B3
:1004800017973496EE0FFF1FE80FF91F80819181B7
:100490000097D1F01B969C938E931A97EF012297A9
:1004A000888199811D969C938E931C9722978881B1
:1004B000998119969C938E93189736978081918194
:1004C00017969C938E931697DF91CF910895CF93B3
:1004D000DF93DC015E968D919C915F971A96CD918A
:1004E000DC911B97CC0FDD1FC80FD91F48811696D2
:1004F0002C911697022E000C330B141644F4220F85
:10050000331FFC01E20FF31F20814150F3CF1896F7
:100510004D915C9119974F5F5F4F19965C934E9385
:100520001897440F551FFC01E40FF51F31832083FA
:100530001A968D919C911B9701961B969C938E9376
:100540001A97DF91CF9108958F929F92AF92BF92A9
:10055000CF92DF92EF92FF920F931F93CF93DF938F
:10056000EC01EA85FB85EE0FFF1F8E8D9F8DE80F56
:10057000F91F0081EB8CFC8CC701880F991F0E942A
:10058000A40C6C014C01FC0180E090E08E159F05ED
:1005900021F0119211920196F9CFE12CF12C002E4D
:1005A000000C110BAA24A394B12C88859985E01620
:1005B000F10698F58E199F09880F991FEE8DFF8D12
:1005C000E80FF91F808191812D8D30E028173907C0
:1005D000E0F0EB8DFC8D3197E823F923EE0FFF1F40
:1005E000EC0DFD1DA3E096958795AA95E1F7950181
:1005F00002C0220F331F8A95E2F7C90120813181A1
:10060000822B932B9183808304C086E691E00E9425
:10061000E90B3FEFE31AF30AC8CF0196801B910B59
:100620009987888740E050E02B8D3C8D888599859F
:100630004217530788F4F401219131914F01840F3F
:10064000951F880F991FEE8DFF8DE80FF91F3183DD
:1006500020834F5F5F4FE8CF0197820F931F9987E9
:1006600088878A859B8502969B878A87DF91CF91B1
:100670001F910F91FF90EF90DF90CF90BF90AF90C0
:100680009F908F900895CF93DF93DC015E96ED915C
:10069000FC915F971A96CD91DC911B97CC0FDD1FD3
:1006A000CE0FDF1F888118962D913C9119972F5FEF
:1006B0003F4F19963C932E931897220F331FE20F4A
:1006C000F31F082E000C990B918380831A968D914D
:1006D0009C911B9701961B969C938E931A97DF9182
:1006E000CF910895CF93DF93DC015E968D919C911D
:1006F0005F971A96ED91FC911B97EE0FFF1FE80F85
:10070000F91F70811896ED91FC911997EE0FFF1F5C
:10071000E80FF91F408160E0042E000C550B18967D
:100720002D913C9119976717C4F4E62F062E000C03
:10073000FF0BEA01CE0FDF1FCC0FDD1FC80FD91F43
:100740000990D881C02DE20FF31FEE0FFF1FE80FB5
:10075000F91FD183C0836F5FE2CF21503109270F8A
:10076000311D77FD3A9519963C932E9318971A965A
:100770008D919C911B9701961B969C938E931A9733
:10078000DF91CF910895FC01828593859C01220F12
:10079000331FA68DB78DA20FB31F4C9120853185D5
:1007A000240F311D47FD3A953187208701969387A5
:1007B00082870895DC011896ED91FC911997EE0F50
:1007C000FF1F5E968D919C915F97E80FF91F8081C6
:1007D000918180959095918380830895CF93DF9345
:1007E000DC015E962D913C915F971896ED91FC91FE
:1007F0001997CF01019719969C938E931897EE0F36
:10080000FF1FE901CE0FDF1F488111964C9311970E
:100810003297E20FF31F608171814603C001479F49
:10082000900D1124918380831A968D919C911B9732
:10083000AC014F5F5F4F1B965C934E931A97880FE6
:10084000991FF901E80FF91F808190968C93DF9131
:10085000CF910895CF93DF93EC012E8D3F8DE885E6
:10086000F985CF01019799878887EE0FFF1FD9017E
:10087000AE0FBF1F6C916983611104C086E991E0DE
:100880000E9491013297E20FF31F80818883082E26
:10089000000C990B062E000C770B0E948A0C7183BA
:1008A00060838A859B85AC014F5F5F4F5B874A877A
:1008B000880F991FF901E80FF91F808188A3DF9144
:1008C000CF910895CF93DF93EC012E8D3F8DE88576
:1008D000F985CF01019799878887EE0FFF1FD9010E
:1008E000AE0FBF1F6C916983611104C087EA91E06C
:1008F0000E9491013297E20FF31F80818883082EB6
:10090000000C990B062E000C770B0E948A0C918329
:1009100080838A859B85AC014F5F5F4F5B874A87E9
:10092000880F991FF901E80FF91F808188A3DF91D3
:10093000CF910895CF93DF93DC015E96ED91FC910A
:100940005F9718962D913C911997C90101971996B7
:100950009C938E931897220F331FEF01C20FD31F62
:10096000888111968C9322503109E20FF31F082ED3
:10097000000C990B20813181822393239183808302
:10098000DF91CF910895DC011896ED91FC911997B4
:10099000EE0FFF1F5E968D919C915F97E80FF91FF8
:1009A00080819181919581959109918380831A9697
:1009B0008D919C911B9701961B969C938E931A97F1
:1009C0000895CF93DF93DC015E962D913C915F9764
:1009D0001896ED91FC911997CF01019719969C9368
:1009E0008E931897EE0FFF1FE901CE0FDF1F48818E
:1009F00011964C9311973297E20FF31F80819181EA
:100A0000840F911D47FD9A95918380831A968D914D
:100A10009C911B97AC014F5F5F4F1B965C934E936D
:100A20001A97880F991FF901E80FF91F8081909696
:100A30008C93DF91CF910895CF93DF93DC015E9685
:100A40002D913C915F971896ED91FC911997CF01EC
:100A5000019719969C938E931897EE0FFF1FE9014B
:100A6000CE0FDF1F488111964C9311973297E20FFA
:100A7000F31F80819181841B910947FD9395918398
:100A800080831A968D919C911B97AC014F5F5F4FAD
:100A90001B965C934E931A97880F991FF901E80FE4
:100AA000F91F808190968C93DF91CF910895CF9319
:100AB000DF93DC015E96ED91FC915F9718962D9186
:100AC0003C911997C901019719969C938E93189799
:100AD000220F331FEF01C20FD31F888111968C9311
:100AE00022503109E20FF31F082E000C990B2081D0
:100AF0003181822B932B91838083DF91CF91089555
:100B0000EF92FF920F931F93CF93DF93EC01EE8D43
:100B1000FF8D8A859B85DC01AA0FBB1FAE0FBF1F0F
:100B2000EC9048854F5F4E19242F2E19022E000C91
:100B3000330B39872887F12C042E000C550BFE143B
:100B4000F4F46F2D0F2C000C770B8901060F171F83
:100B5000000F111F0E0F1F1FDA01A60FB71FAA0FDC
:100B6000BB1FBD016E0F7F1FD8010D911C91DB01D2
:100B70006D917C910617170721F4F394E0CF41E0C3
:100B800001C040E001969B878A87220F331FE20F46
:100B9000F31F442329F081E090E09183808302C019
:100BA00011821082DF91CF911F910F91FF90EF90F2
:100BB00008950F931F93CF93DF93DC015E968D9181
:100BC0009C915F971A96ED91FC911B97EE0FFF1F7A
:100BD000E80FF91F008118962C911897201B61E0EF
:100BE000620F022E000C330B19963C932E9318972C
:100BF000F901EE0FFF1FE80FF91F1182108210E0BC
:100C0000062E000C770B101754F5412F012E000C07
:100C1000550BE901C40FD51FCC0FDD1FC80FD91F1D
:100C2000FB01E40FF51FEE0FFF1FE80FF91F0990FE
:100C3000D881C02D40815181C417D50771F0189615
:100C40002D913C911997220F331FFC01E20FF31FE6
:100C500021E030E03183208302C01F5FD4CF1A9699
:100C60008D919C911B9701961B969C938E931A973E
:100C7000DF91CF911F910F910895CF93DF93DC0106
:100C80005E96ED91FC915F9718962D913C91199786
:100C9000C901019719969C938E931897220F331FC1
:100CA000EF01C20FD31F988111969C9322503109F6
:100CB000E20FF31F892F990F990B21E030E040815B
:100CC00051814817590714F020E030E03183208328
:100CD000DF91CF910895CF93DF93DC015E96ED9184
:100CE000FC915F9718962D913C911997C901019736
:100CF00019969C938E931897220F331FEF01C20F02
:100D0000D31F988111969C9322503109E20FF31F53
:100D1000892F990F990B21E030E0408151814817CC
:100D2000590714F420E030E031832083DF91CF9124
:100D30000895CF93DF93DC015E96ED91FC915F9770
:100D400018962D913C911997C901019719969C937A
:100D50008E931897220F331FEF01C20FD31F988174
:100D600011969C9322503109E20FF31F892F990F9E
:100D7000990B21E030E0408151818417950714F0F0
:100D800020E030E031832083DF91CF910895CF932D
:100D9000DF93DC015E96ED91FC915F9718962D91A3
:100DA0003C911997C901019719969C938E931897B6
:100DB000220F331FEF01C20FD31F988111969C930E
:100DC00022503109E20FF31F892F990F990B21E06F
:100DD00030E0408151818417950714F420E030E021
:100DE00031832083DF91CF9108950F931F93CF9389
:100DF000DF93DC015E968D919C915F971A96ED9141
:100E0000FC911B97EE0FFF1FE80FF91FC08118968A
:100E10002D913C9119972C1B3109C7FD3395A901E0
:100E20004150510919965C934E931897220F331F26
:100E3000FC01E20FF31F60814E5FD0E0042E000C36
:100E4000550B062E000C770BDC17C4F42D2F0D2E3E
:100E5000000C330BFA01E20FF31FEE0FFF1FE80F38
:100E6000F91F00811181FB01E20FF31FEE0FFF1F3D
:100E7000E80FF91F11830083DF5FE6CF1A968D918B
:100E80009C911B9701961B969C938E931A97DF91CA
:100E9000CF911F910F910895CF93DF93FC01868D21
:100EA000978DA285B385AA0FBB1FA80FB91F2C91E0
:100EB000C085D1852196CC0FDD1FC80FD91F468173
:100EC000578159834883C085D1852396CC0FDD1F78
:100ED000C80FD91F4485558559834883A085B1859E
:100EE0001496AA0FBB1FA80FB91F82859385019680
:100EF0008D939C93808591859783868304969187B3
:100F00008087828593850197820F911D27FD9A9591
:100F100093878287DF91CF910895CF93DF93EC0180
:100F2000EE8DFF8D4A855B85CA0101969B878A8776
:100F3000440F551FDF01A40FB51F8C9128853985FB
:100F40002F5F3F4F39872887220F331FE20FF31F90
:100F5000082E000C990B91838083DF91CF91089527
:100F60000F931F93CF93DF93EC0189E492E00E94EB
:100F7000E90B8A859B8594500E940F0C87EB91E0CA
:100F80000E94E90B00E010E0E885F985E00FF11F11
:100F9000EE0FFF1F8E8D9F8DE80FF91F80819181CD
:100FA0000E940F0C8AEB91E00E94E90B0F5F1F4F2C
:100FB0000830110549F78DEB91E0DF91CF911F913A
:100FC0000F910C94E90BCF93DF93FC01868D978DE5
:100FD000A085B185AA0FBB1FA80FB91FC285D385F5
:100FE000CC0FDD1FC80FD91F38812C91230FEC01C6
:100FF00032E02302C00DD11D1124229628812297B0
:10100000488159814D935C93C085D1852196CC0F41
:10101000DD1FC80FD91F4681578159834883C0857A
:10102000D1852396CC0FDD1FC80FD91F4485558568
:1010300059834883A085B1851496AA0FBB1FA80FBA
:10104000B91F8285938501968D939C9380859185A8
:1010500097838683049691878087022E000C330B3A
:1010600033872287DF91CF910895CF93DF93FC01DF
:10107000A68DB78D22853385E901CC0FDD1FCA0F00
:10108000DB1F688180859185AC01440F551FA40F3B
:10109000B51F4D915C914130510519F42F5F3F4FC1
:1010A00006C021503109260F311D67FD3A9533875F
:1010B0002287019791878087DF91CF910895FC0166
:1010C00022853385C901880F991FA68DB78DA80F7A
:1010D000B91F8C9121503109280F311D87FD3A9598
:1010E0003387228708950C945F080895CF93DF9388
:1010F000EC018A859B859C01220F331FEE8DFF8DAD
:10110000E20FF31F20810197820F911D27FD9A9511
:101110009B878A87CE010E9499012989422F022E3E
:10112000000C550B8A89082E000C990B0197481763
:10113000590714F0198A02C02F5F298BCE01DF9165
:10114000CF910C94D2010895FC01A68DB78D8285B4
:1011500093859C01220F331FA20FB31F4C9112964F
:101160002C9120A320853185240F311D47FD3A9510
:10117000448555854217530720F482EC91E00E9484
:1011800091010296938782870895FC0182898230BB
:1011900024F181892289082E000C990B422F022EFE
:1011A000000C550B415051098417950784F4A7850D
:1011B000B089880F991FA80FB91F12968D919C9125
:1011C00013978D939C9381898F5F818BE2CF215000
:1011D000228B118ACF010C94D201828593859C01C8
:1011E000220F331FA68DB78DA20FB31F4C912389F9
:1011F000022E000C330B318720872489022E000C2D
:10120000330B358724870197840F911D47FD9A95ED
:10121000938782870895AF92BF92CF92DF92EF9229
:10122000FF920F931F93CF93DF93EC018E8D9F8DD1
:10123000EA85FB85EE0FFF1FE80FF91FB080828162
:1012400088A3BA8A8E858B1524F488EE91E00E94DB
:101250009101288539852B8B8C859D858C8B821BF4
:10126000930B6B2D0B2C000C770B0E94760CA12C92
:10127000C62E660FDD08AB140CF044C08885998536
:101280008C0D9D1D9D878C870A2D000F110BEF84FF
:10129000F888E00EF11E8AE090E00E94520BF70100
:1012A00091838083EF85F889E00FF11FE080F18062
:1012B0006E817F81C7010E947A0B68857985C7019D
:1012C0000E947E0B6C857D85C7010E94820B6A851A
:1012D0007B85060F171F0D5F1F4F000F111FEE8D2F
:1012E000FF8DE00FF11F6150710980819181680FBE
:1012F000791FC7010E94860B8C859D8599878887F9
:10130000A394B9CF198ACE01DF91CF911F910F918C
:10131000FF90EF90DF90CF90BF90AF900C94D201F0
:101320001F93CF93DC015E966D917C915F971A9627
:10133000ED91FC911B97EE0FFF1FE60FF71FC08189
:1013400032811481868190968C93909718964D9156
:101350005C911997CA01880F991FFB01E80FF91FCB
:1013600020814150510919965C934E9318972C1780
:1013700014F0321724F48CE092E00E94910102975D
:10138000FB01E80FF91F022E000C330B2C1B310957
:10139000C7FD33951203C001139F900D11242081C6
:1013A0003181820F931F918380831A968D919C9136
:1013B0001B9704961B969C938E931A97CF911F911F
:1013C0000895CF93DF93DC015E968D919C915F979A
:1013D0001896ED91FC911997EE0FFF1FE80FF91F7A
:1013E0001A96CD91DC911B97CC0FDD1FC80FD91F2A
:1013F000288180819181820F911D27FD9A9591838B
:1014000080831A968D919C911B9701961B969C93B5
:101410008E931A97DF91CF9108950C94E109CF93A1
:10142000DF93EC01E885F985EE0FFF1F8E8D9F8D10
:10143000E80FF91F808191810E94430C0E94E70B05
:1014400088859985019799878887DF91CF9108953D
:10145000CF93DF93EC01E885F985EE0FFF1F8E8DAA
:101460009F8DE80FF91F80810E94E70B8885998581
:10147000019799878887DF91CF910895CF93DF9364
:10148000EC01E885F985EE0FFF1F8E8D9F8DE80F2B
:10149000F91F80819181892B19F080E392E002C0CD
:1014A0008AE292E00E94E90B8885998501979987E5
:1014B0008887DF91CF91089580EC91E00C94E90B3F
:1014C0000E949A0B811103C085E392E002C08FEB6A
:1014D00091E00E94E90B80E090E00E94090EEC018F
:1014E0002E8D3F8D498D5A8D8A859B85BC016F5FFE
:1014F0007F4F7B876A87880F991FF901E80FF91FD3
:1015000000811181F801E41BF50BED34F10508F0C1
:10151000A0C0EC5CFF4F0C949E0CCE010E943602E2
:10152000DFCFCE010E94F901DBCFCE010E949009EE
:10153000D7CFCE010E940B09D3CFCE010E94E30783
:10154000CFCFCE010E944C07CBCFCE010E94C50861
:10155000C7CFCE010E948D07C3CFCE010E94A40841
:10156000BFCFCE010E94F506BBCFCE010E94430340
:10157000B7CFCE010E94A402B3CFCE010E9435089E
:10158000AFCFCE010E948005ABCFCE010E94E10912
:10159000A7CFCE010E945F08A3CFCE010E94D9053C
:1015A0009FCFCE010E94C3039BCFCE010E94720346
:1015B00097CFCE010E94760893CFCE010E94E1041E
:1015C0008FCFCE010E949A048BCFCE010E942A04B5
:1015D00087CFCE010E94600ACE010E94990680CF7B
:1015E000CE010E943D067CCFCE010E94C30478CF7D
:1015F000CE010E94620474CFCE010E94EE0370CF30
:10160000CE010E94DA036CCFCE010E94C70668CFDC
:10161000CE010E946B0664CFCE010E94570560CFB9
:10162000CE010E941C055CCFCE010E94670258CFFC
:10163000CE010E940F0A54CFCE010E94280A50CF3B
:10164000CE010E943E0A4CCF80EC91E00E94E90B53
:1016500047CF88E392E00E94E90BC8010E940F0C7B
:1016600088E492E00E94E90B8A859B850E940F0C1A
:101670000E94F80B81E090E00E94090ECF93DF9367
:10168000EC018F8598890E943C0D8B819C810E9482
:101690003C0D8E8D9F8D0E943C0DCE01DF91CF9130
:1016A0000C943C0D23E0880F991F2A95E1F70E94C6
:1016B000A40CFC01178216821582148213821282F6
:1016C00011821082089523E0880F991F2A95E1F76F
:1016D0000C94A40CFC01808191810895FC0182810D
:1016E00093810895FC01848195810895FC01868190
:1016F00097810895FC01718360830895FC017383D1
:1017000062830895FC01758364830895FC017783E7
:1017100066830895FB0101900020E9F73197AF013E
:10172000461B570B0E94F30D21E0892B09F020E0A6
:10173000822F089560EA72E088E792E00E94EA0D45
:1017400021E0892B09F020E0822F089580914F023B
:1017500090914E02899FC001112428E7289FA00183
:10176000299F500D112460E070E080E592E00E9416
:10177000E30D10924E0210924F020895CF93C82F9E
:101780000E941F0CCA3069F480914E02823020F40E
:101790008F5F80934E0202C010924E0210924F0251
:1017A00014C0C43511F40E94A60B80914F02E09141
:1017B0004E0298E2E99FF0011124E05BFD4FE80F33
:1017C000F11DC0838F5F80934F02CF9108950C94D9
:1017D000BE0BCF93DF93EC018881882331F02097F3
:1017E000D9F321960E94BE0BF7CFDF91CF910895D8
:1017F0008AE00C94BE0B0C94180C8F708A3010F099
:10180000895C01C0805D0C94BE0BCF93C82F82957C
:101810008F700E94FD0B8C2FCF910C94FD0BCF93FA
:10182000C82F892F0E94050C8C2FCF910C94050C8A
:101830008091C00087FFFCCF8091C60008959091F1
:10184000C00095FFFCCF8093C60008958091C80228
:1018500081110FC087E690E09093C5008093C4008B
:1018600088E18093C1008EE08093C20081E0809384
:10187000C802089580530895805D0895082E000CD5
:10188000990BC0970895805D08950F931F93CF9390
:10189000DF93CDB7DEB7CC54D1090FB6F894DEBFD5
:1018A0000FBECDBF0E94260C8CE4E6E0F1E0DE0125
:1018B000119601900D928A95E1F70E940F018C011B
:1018C000BE016F5F7F4F0E941C01C8010E946F0A1A
:1018D00080E090E0C45BDF4F0FB6F894DEBF0FBE30
:1018E000CDBFDF91CF911F910F910895AA1BBB1B14
:1018F00051E107C0AA1FBB1FA617B70710F0A61B10
:10190000B70B881F991F5A95A9F780959095BC0130
:10191000CD01089597FB072E16F4009407D077FDAC
:1019200009D00E94760C07FC05D03EF49095819575
:101930009F4F0895709561957F4F0895EE0FFF1F9B
:101940000590F491E02D09940F931F93CF93DF93AB
:101950008230910510F482E090E0E091CB02F091AA
:10196000CC0220E030E0A0E0B0E0309719F14081F7
:1019700051810281138148175907C8F084179507D0
:1019800069F4109731F012960C93129713961C93EA
:1019900027C00093CB021093CC0222C02115310541
:1019A00019F04217530718F49A01BD01EF01DF0146
:1019B000F801DBCF21153105F9F0281B390B243054
:1019C000310580F48A819B816115710521F0FB014D
:1019D0009383828304C09093CC028093CB02FE0158
:1019E000329644C0FE01E20FF31F8193919322507F
:1019F0003109398328833AC02091C9023091CA0243
:101A0000232B41F420910201309103013093CA024B
:101A10002093C90220910001309101012115310567
:101A200041F42DB73EB74091040150910501241BAC
:101A3000350BE091C902F091CA02E217F307A0F456
:101A40002E1B3F0B2817390778F0AC014E5F5F4F14
:101A50002417350748F04E0F5F1F5093CA0240937A
:101A6000C9028193919302C0E0E0F0E0CF01DF91E1
:101A7000CF911F910F910895CF93DF93009709F4B1
:101A800081C0FC01329713821282A091CB02B091E7
:101A9000CC02109781F420813181820F931F209115
:101AA000C9023091CA022817390751F5F093CA02CA
:101AB000E093C90267C0ED0120E030E0CE17DF07F8
:101AC00040F44A815B819E0141155105F1F0EA0124
:101AD000F5CFD383C28340815181840F951FC817EE
:101AE000D90759F488819981840F951F02969183B3
:101AF00080838A819B81938382832115310529F418
:101B0000F093CC02E093CB023DC0E901FB83EA8372
:101B100049915991C40FD51FEC17FD0761F48081DD
:101B20009181840F951F0296E901998388838281B0
:101B300093819B838A83E0E0F0E012968D919C91E3
:101B40001397009719F0FD01DC01F7CF8D919C915F
:101B500011979D012E5F3F4F820F931F2091C90265
:101B60003091CA022817390769F4309729F4109286
:101B7000CC021092CB0202C013821282B093CA022E
:101B8000A093C902DF91CF910895FC01882799277E
:101B9000E89421912032E9F3293010F02E30C8F377
:101BA0002B3241F02D3239F4689404C00E94010EAA
:101BB000820F911D219120532A30C0F31EF490957D
:101BC00081959F4F0895DC0101C06D9341505040B5
:101BD000E0F70895FB01DC018D910190801901105F
:101BE000D9F3990B0895FB01DC014150504030F0CE
:101BF0008D910190801919F40020B9F7881B990B79
:101C000008957AE0979F902D879F802D910D112444
:061C10000895F894FFCFD7
:101C16000000CD022000BB01010001000000000011
:101C260096015400DA0196016500DA019601730007
:101C3600DA0196017400DA0196012000DA019601B4
:101C46006600DA0196013000DA01DC019601300007
:101C5600DA01DC0196010000D901DC019F019C013B
:101C6600FFFF537461636B206F766572666C6F77E6
:101C7600733A207370004572726F723A20656C6514
:101C86006D656E7420686173207468652076616C7A
:101C96007565206F75747369646520736574207249
:101CA600616E67650A006469766973696F6E2062A2
:101CB60079207A65726F006D6F64756C757320623A
:101CC60079207A65726F00205B002C20002E2E2E64
:101CD6000A004E6F7420656E6F756768206D656DBE
:101CE6006F727920746F2072756E20612070726F2A
:101CF600636573732073700045786365656473204C
:101D06006D6178696D756D206E756D626572206F97
:101D1600662070726F63657373657300696E6465C0
:101D260078206578636565647320617272617920D5
:101D360064696D656E73696F6E0066616C736500CC
:101D46007472756500460A00556E6B6E6F776E206D
:0E1D56006F70636F64653D002069703D000092
:00000001FF
