:100000000C9481000C949E000C949E000C949E0015
:100010000C949E000C949E000C949E000C949E00E8
:100020000C949E000C949E000C949E000C949E00D8
:100030000C949E000C949E000C949E000C949E00C8
:100040000C949E000C949E000C949E000C949E00B8
:100050000C949E000C949E000C949E000C949E00A8
:100060000C949E000C949E00B20A080ABC0A3A0A3C
:100070006C0BED09440A4E0A6C0BC60A580A120AA8
:10008000D00A6C0B6C0BCF09620A680A6C0B720AFF
:100090006C0B7C0AD90A6C0BE3093D0B6C0BE30A71
:1000A0006C0BED0AF70A010B6C0B0B0B820A150B9C
:1000B0001F0B290B6C0BF7096C0B1C0A010AD909E1
:1000C000260A330B6C0B8C0A960A300AA00AAA0A7D
:1000D0006C0B6C0B6C0B6C0B6C0B6C0B6C0B6C0B68
:1000E0006C0B6C0B6C0B6C0B6C0B6C0B6C0B6C0B58
:1000F0006C0B6C0B6C0B6C0B6C0B470B4C0B580BA1
:10010000620B11241FBECFEFD8E0DEBFCDBF13E0DE
:10011000A0E0B1E0E6E0FCE102C005900D92A83657
:10012000B107D9F723E0A8E6B3E001C01D92A73ECE
:10013000B207E1F70E94690C0C94010E0C940000C8
:100140000E940D0C0E941C0C81E090E00E94010EA8
:10015000CF93DF93EC018F856D817E812D859E8508
:10016000E22FF92FE80FF11DE80FF11D0190F0814A
:10017000E02D808191810E949E0B8F856F81788513
:100180002D859E85E22FF92FE80FF11DE80FF11D57
:100190000190F081E02D808191810E94A20B8F85DA
:1001A0006B857C852D859E85E22FF92FE80FF11D4B
:1001B000E80FF11D0190F081E02D808191810E9476
:1001C000A60B8F8569857A852D859E85E22FF92F6F
:1001D000E80FF11DE80FF11D0190F081E02D808105
:1001E0009181DF91CF910C94AA0BCF93DF93EC0117
:1001F0008F852D859E85E22FF92FE80FF11DE80FE1
:10020000F11D0190F081E02D808191810E948E0B83
:100210009E838D838F852D859E85E22FF92FE80F94
:10022000F11DE80FF11D0190F081E02D8081918199
:100230000E94920B98878F838F852D859E85E22F54
:10024000F92FE80FF11DE80FF11D0190F081E02D6D
:10025000808191810E94960B9C878B878F852D854D
:100260009E85E22FF92FE80FF11DE80FF11D019097
:10027000F081E02D808191810E949A0B9A87898775
:10028000DF91CF910895FC0123893489A185B2853E
:10029000AA0FBB1FA20FB31F6C9112965C9112970D
:1002A00014964C91149716968C91858B8581968126
:1002B000DC011296AA0FBB1FA20FB31F0197861B6A
:1002C00091098D939C9387819085850F911D9087CF
:1002D0008783840F911D238534852817390728F4D7
:1002E000BF0183E591E00E94A0008185928504967C
:1002F000928781870895CF93DF93DC0153968D9188
:100300009C9154971596ED91FC9116973496EE0FAB
:10031000FF1FE80FF91F808191810097D1F01A9695
:100320009C938E931997EF012297888199811C964F
:100330009C938E931B9722978881998118969C9302
:100340008E93179736978081918116969C938E9302
:100350001597DF91CF910895DC0153966D917C91B3
:10036000549715962C9115971996ED91FC911A9723
:10037000EE0FFF1FE60FF71F8081082E000C990B70
:10038000022E000C330B1816190644F4220F331FEB
:10039000FB01E20FF31F20810197F2CF17964D91D9
:1003A0005C9118974F5F5F4F18965C934E93179729
:1003B000440F551FFB01E40FF51F3183208319966D
:1003C0008D919C911A9701961A969C938E931997EA
:1003D0000895CF93DF93DC0153968D919C915497B0
:1003E0001796ED91FC911897EE0FFF1FE80FF91F7C
:1003F0001996CD91DC911A97CC0FDD1FC80FD91F2C
:10040000288180819181820F911D27FD9A9591838A
:10041000808319968D919C911A9701961A969C93B8
:100420008E931997DF91CF9108959F92AF92BF92CB
:10043000CF92DF92EF92FF920F931F93CF93DF93B0
:10044000EC01E985FA85EE0FFF1F8B899C89E80F87
:10045000F91F908088E090E00E94C20C5C017C0152
:100460000896F5011192E817F907E1F700E010E0AE
:10047000CC24C394D12C2B893C898F819885091574
:1004800024F5FC01E01BF10BEE0FFF1FE20FF31F41
:10049000808187FD13C0982F9770F501E90FF11D3A
:1004A000859585958595960102C0220F331F8A9503
:1004B000E2F7C9019081892B808304C087E691E02F
:1004C0000E940D0C0F5F1F4FD6CF0196891991091D
:1004D00097FC939598878F8380E090E0F701419196
:1004E0007F01EF81F885E80FF91FEE0FFF1FE20F84
:1004F000F31F042E000C550B518340830196883066
:10050000910561F78F819885079698878F838985F4
:100510009A8502969A878987DF91CF911F910F91D3
:10052000FF90EF90DF90CF90BF90AF909F90089595
:10053000CF93DF93DC015396ED91FC91549719967C
:10054000CD91DC911A97CC0FDD1FCE0FDF1F888174
:10055000998117962D913C9118972F5F3F4F1896D0
:100560003C932E931797220F331FE20FF31F9183B3
:10057000808319968D919C911A9701961A969C9357
:100580008E931997DF91CF9108950F931F93CF9377
:10059000DF93DC0153964D915C9154971996ED9140
:1005A000FC911A97EE0FFF1FE40FF51F80819181D8
:1005B0001796ED91FC911897EE0FFF1FE40FF51FB2
:1005C000C081D181CC0FDD1FC40FD51F60E070E06A
:1005D00017962D913C9118976817790774F4099133
:1005E0001991FB01E20FF31FEE0FFF1FE40FF51F40
:1005F000118300836F5F7F4FEBCF21503109280FAC
:10060000391F18963C932E93179719968D919C91AC
:100610001A9701961A969C938E931997DF91CF9112
:100620001F910F910895FC01818592859C01220FF5
:10063000331FA389B489A20FB31F478150852D9121
:100640003C91240F351F308727830196928781873D
:100650000895DC011796ED91FC911897EE0FFF1F9E
:1006600053968D919C915497E80FF91F8081918149
:1006700080959095918380830895CF93DF93DC01DB
:1006800053962D913C9154971796ED91FC911897A4
:10069000CF01019718969C938E931797EE0FFF1F2B
:1006A000E901CE0FDF1F888111968C931197329745
:1006B000E20FF31F60817181869FA001879F500D1B
:1006C00011245183408319968D919C911A97AC0106
:1006D0004F5F5F4F1A965C934E931997880F991F3F
:1006E000F901E80FF91F808155968C93DF91CF9126
:1006F0000895CF93DF93FC0123893489A781B085C6
:10070000CD01019790878783AA0FBB1FE901CA0F0C
:10071000DB1F68816183611105C0BF0187E991E03A
:100720000E94A0001297A20FB31F8C9180830E9499
:100730009C0C90E08D939C9381859285AC014F5FDA
:100740005F4F52874187880F991FD901A80FB91FA2
:100750008C91858BDF91CF910895CF93DF93FC012E
:1007600023893489A781B085CD010197908787833C
:10077000AA0FBB1FE901CA0FDB1F688161836111EA
:1007800005C0BF0188EA91E00E94A0001297A20F65
:10079000B31F8C9180830E949C0C892F90E08D93D5
:1007A0009C9381859285AC014F5F5F4F5287418753
:1007B000880F991FD901A80FB91F8C91858BDF91E4
:1007C000CF910895CF93DF93DC015396ED91FC9187
:1007D000549717962D913C911897C9010197189637
:1007E0009C938E931797220F331FEF01C20FD31FD5
:1007F0004881598111964C9322503109E20FF31F21
:100800005527808191814823592351834083DF916B
:10081000CF910895DC011796ED91FC911897EE0F9A
:10082000FF1F53968D919C915497E80FF91F80817B
:1008300091819195819591099183808319968D91EC
:100840009C911A9701961A969C938E9319970895E6
:10085000CF93DF93DC0153962D913C9154971796DB
:10086000ED91FC911897CF01019718969C938E9368
:100870001797EE0FFF1FE901CE0FDF1F488111967A
:100880004C9311973297E20FF31F80819181840F6F
:10089000911D9183808319968D919C911A97AC013B
:1008A0004F5F5F4F1A965C934E931997880F991F6D
:1008B000F901E80FF91F808155968C93DF91CF9154
:1008C0000895CF93DF93DC0153962D913C9154977B
:1008D0001796ED91FC911897CF01019718969C936C
:1008E0008E931797EE0FFF1FE901CE0FDF1F488190
:1008F00011964C9311973297E20FF31F80819181EB
:10090000841B91099183808319968D919C911A97EC
:10091000AC014F5F5F4F1A965C934E931997880F07
:10092000991FF901E80FF91F808155968C93DF918B
:10093000CF910895CF93DF93DC015396ED91FC9115
:10094000549717962D913C911897C90101971896C5
:100950009C938E931797220F331FEF01C20FD31F63
:10096000488111964C9322503109E20FF31F808188
:100970009181842B91838083DF91CF910895CF92D1
:10098000DF92EF92FF920F931F93CF93DF93EC01CF
:10099000EB89FC8989859A85DC01AA0FBB1FAE0F04
:1009A000BF1F4D915C912F8138852F5F3F4F241BD6
:1009B000350BD901A41BB50BB887AF83AA0FBB1F9A
:1009C000AE0FBF1FBD01220F331F6F01C20ED31E1A
:1009D00020E030E02417350774F4FB01E190F1903A
:1009E000BF01F601019111916F01E016F10629F4A2
:1009F0002F5F3F4FEFCF41E001C040E09C012F5FF0
:100A00003F4F3A872987442329F081E090E08D9376
:100A10009C9302C01D921C92DF91CF911F910F9168
:100A2000FF90EF90DF90CF900895CF93DF93DC019C
:100A300053968D919C9154971996CD91DC911A976C
:100A4000CC0FDD1FC80FD91F488159811796ED9132
:100A5000FC911897E41BF50B1896FC93EE931797EF
:100A6000EE0FFF1FE80FF91F1182108220E030E027
:100A700024173507BCF4C191D19160817181C617EB
:100A8000D70769F01796ED91FC911897EE0FFF1FAD
:100A9000E80FF91F81E090E09183808303C02F5F0E
:100AA0003F4FE6CF19968D919C911A9701961A9611
:100AB0009C938E931997DF91CF910895CF93DF93F5
:100AC000DC015396ED91FC91549717962D913C9132
:100AD0001897C901019718969C938E931797220F28
:100AE000331FEF01C20FD31F4881598111964C93D8
:100AF00022503109E20FF31F552781E090E0208159
:100B000031812417350714F080E090E091838083D1
:100B1000DF91CF910895CF93DF93DC015396ED9150
:100B2000FC91549717962D913C911897C901019704
:100B300018969C938E931797220F331FEF01C20FC5
:100B4000D31F4881598111964C9322503109E20FED
:100B5000F31F552781E090E020813181241735076C
:100B600014F480E090E091838083DF91CF91089529
:100B7000CF93DF93DC015396ED91FC915497179638
:100B80002D913C911897C901019718969C938E93CB
:100B90001797220F331FEF01C20FD31F48815981CE
:100BA00011964C9322503109E20FF31F552781E033
:100BB00090E0208131814217530714F080E090E0EB
:100BC00091838083DF91CF910895CF93DF93DC01F0
:100BD0005396ED91FC91549717962D913C9118974F
:100BE000C901019718969C938E931797220F331F74
:100BF000EF01C20FD31F4881598111964C932250A7
:100C00003109E20FF31F552781E090E02081318107
:100C10004217530714F480E090E091838083DF91C2
:100C2000CF9108950F931F93CF93DF93DC015396D9
:100C30004D915C9154971996ED91FC911A97EE0F96
:100C4000FF1FE40FF51F6081062E000C770B17962F
:100C50002D913C911897261B370BE9012197189687
:100C6000DC93CE931797220F331FFA01E20FF31F85
:100C70008081CE5F880F990BFA01E80FF91F9195DB
:100C8000819591090C2F000F110B20E030E0261701
:100C900037076CF4AF01480F591F400F511FEA018D
:100CA00048815981419351932F5F3F4FF0CF19965F
:100CB0008D919C911A9701961A969C938E931997F1
:100CC000DF91CF911F910F910895CF93DF93FC0196
:100CD00083899489A185B285AA0FBB1FA80FB91F6C
:100CE0002C91C781D0852196CC0FDD1FC80FD91F4D
:100CF0004581568159834883C781D0852396CC0F7F
:100D0000DD1FC80FD91F4385548559834883A781A8
:100D1000B0851496AA0FBB1FA80FB91F81859285B5
:100D200001968D939C938781908596838583049605
:100D300090878783818592850197820F911D27FD7A
:100D40009A9592878187DF91CF910895CF93DF9312
:100D5000EC01EB89FC8949855A85CA0101969A877D
:100D60008987440F551FDF01A40FB51F8D919C91FA
:100D70002F8138852F5F3F4F38872F83220F331FF6
:100D8000E20FF31F91838083DF91CF91089508953F
:100D9000CF93DF93FC0183899489C781D085CC0FE1
:100DA000DD1FC80FD91FA185B285AA0FBB1FA80FD1
:100DB000B91F2C91A881B981A20FB11D27FDBA9549
:100DC0001196AA0FBB1FA80FB91F2D913C91119727
:100DD00012974D915C9159834883A781B0851196F4
:100DE000AA0FBB1FA80FB91F458156814D935C9375
:100DF000A781B0851396AA0FBB1FA80FB91F438503
:100E000054854D935C93A781B0851496AA0FBB1FA0
:100E1000A80FB91F8185928501968D939C93878138
:100E20009085968385830496908787833287218770
:100E3000DF91CF910895CF93DF93FC01A389B4890B
:100E400021853285E901CC0FDD1FCA0FDB1F6881C8
:100E500087819085AC01440F551FA40FB51F4D919C
:100E60005C914130510519F42F5F3F4F06C021506E
:100E70003109260F311D67FD3A9532872187019789
:100E800090878783DF91CF910895FC01218532857A
:100E9000C901880F991FA389B489A80FB91F8C9124
:100EA00021503109280F311D87FD3A95328721875E
:100EB00008950C9445070895CF93DF93EC0189853D
:100EC0009A859C01220F331FEB89FC89E20FF31FE7
:100ED00020810197820F911D27FD9A959A87898716
:100EE000CE010E94A8002F85422F50E0888990E013
:100EF00001974817590714F01F8602C02F5F2F87EC
:100F0000CE01DF91CF910C94F5000895FC01A389E7
:100F1000B489818592859C01220F331FA20FB31FD4
:100F20004D915C91119712962C91258B27813085DC
:100F3000240F351F438554854217530728F4BF01FA
:100F400088EB91E00E94A000029692878187089525
:100F5000FC018089823000F18785208990E0422F52
:100F600050E0415051098417950784F4A585B68552
:100F7000880F991FA80FB91F12968D919C911397F6
:100F80008D939C9387858F5F8787E6CF2150208B39
:100F90001786CF010C94F500818592859C01220F64
:100FA000331FA389B489A20FB31F4C91218930E06C
:100FB00030872783228930E0348723870197840F85
:100FC000911D47FD9A959287818708958F929F92F0
:100FD000BF92CF92DF92EF92FF920F931F93CF9326
:100FE000DF93EC018B899C89E985FA85EE0FFF1F61
:100FF000E80FF91F208182818D8B288B2B3028F000
:10100000BE018EED91E00E94A0004F815885498B72
:101010008B859C858A8B841B950BC22E220FDD0845
:10102000B6010E94A80CB12CE62E660FFF080B2D0E
:1010300010E00C151D050CF060C08F8198858E0D99
:101040009F1D9C878B87000F111FED85FE85E00F8C
:10105000F11F808091808AE090E00E94760BF4017D
:10106000918380836D817E81ED85FE85E00FF11F88
:101070000190F081E02D808191810E949E0B6F8113
:101080007885ED85FE85E00FF11F0190F081E02D60
:10109000808191810E94A20B6B857C85ED85FE8508
:1010A000E00FF11F0190F081E02D808191810E947D
:1010B000A60B69857A85FB01E00FF11F3396EE0FD1
:1010C000FF1F8B899C89E80FF91F6150710980818E
:1010D0009181680F791F8D859E85FC01E00FF11FBE
:1010E0000190F081E02D808191810E94AA0B8B8577
:1010F0009C8598878F83B3949ACF1F86CE01DF910A
:10110000CF911F910F91FF90EF90DF90CF90BF9004
:101110009F908F900C94F5001F93CF93DF93FC0169
:1011200063897489A185B285AA0FBB1FA60FB71F5B
:10113000CC9112961C9112971496DC9114971696E6
:101140008C91858B47815085CA01880F991FDB01DF
:10115000A80FB91F2D913C914150510950874783E9
:101160002C1710F0121728F4BF0182E092E00E94C1
:10117000A0000297DB01A80FB91F33272C1B3109F0
:10118000D29FC001D39F900D11242D913C911197B6
:10119000820F931F8D939C938185928504969287ED
:1011A0008187DF91CF911F910895CF93DF93DC0169
:1011B00053968D919C9154971796ED91FC911897A9
:1011C000EE0FFF1FE80FF91F1996CD91DC911A97CA
:1011D000CC0FDD1FC80FD91F288180819181820F1C
:1011E000911D9183808319968D919C911A970196F8
:1011F0001A969C938E931997DF91CF910895FC01D5
:101200002781308521503109308727830895FC01DB
:101210002781308521503109308727830895CF9366
:10122000DF93EC01EF81F885EE0FFF1F8B899C891E
:10123000E80FF91F80819181892B19F086E292E0F5
:1012400002C080E292E00E940D0C8F819885019788
:1012500098878F83DF91CF9108950C941C0C80E0C8
:1012600090E00E94010EEF92FF920F931F93CF9395
:10127000DF9326E1AC01249FC001259F900D11242E
:101280000E94C20CEC01198218821A861986198AEA
:101290001A8A1F8681E0888B8AE090E00E94870B83
:1012A0009E878D8700E010E0ED84FE84E00EF11E45
:1012B0008AE090E00E94760BF701918380830E5FB5
:1012C0001F4F0431110581F784E690E00E94C20CA3
:1012D0009B838A831C8288EC90E00E94C20C9C8BCA
:1012E0008B8BFC019C0128533F4F11921192E21706
:1012F000F307D9F720E034E03C872B871E821D825C
:1013000024E030E038872F83FC01118610861D8A87
:10131000CE01DF91CF911F910F91FF90EF90089533
:10132000CF93DF93DC011B962D913C911C971A966D
:101330003C932E931997FB01220F331F81919191BA
:101340008F3F4FEF940759F05396CD91DC9154970E
:10135000C20FD31F998388832E5F3F4FEFCFDF915A
:10136000CF910895EC01EB89FC8989859A859C01D0
:101370002F5F3F4F3A872987880F991FE80FF91F82
:101380000190F081E02DE059F14080910001ED34B1
:10139000F10508F0A1C1EC5CFF4F0C94BC0C882354
:1013A00021F08BE292E00E940D0CCE010E947B01A5
:1013B000DACF882321F083E392E00E940D0CCE0166
:1013C0000E944301D0CF882321F08EE392E00E9457
:1013D0000D0CCE010E948C08C6CF882321F085E435
:1013E00092E00E940D0CCE010E94E607BCCF88233C
:1013F00021F08EE492E00E940D0CCE010E94C806FE
:10140000B2CF882309F4AFCFCE010E946506ABCFDF
:10141000882321F089E592E00E940D0CCE010E9404
:10142000A807A1CF882321F082E692E00E940D0C4C
:10143000CE010E94450797CF882321F088E692E0ED
:101440000E940D0CCE010E94A6068DCF882321F0AC
:1014500081E792E00E940D0CCE010E94860783CFA7
:10146000882321F08AE792E00E940D0CCE010E94B1
:10147000E90179CF882321F084E892E00E940D0CE5
:10148000CE010E9412066FCF882321F08CE892E0F3
:101490000E940D0CCE010E94980265CF882321F096
:1014A00086E992E00E940D0CCE010E9415025BCFEE
:1014B000882321F081EA92E00E940D0CCE010E9467
:1014C0001B0751CF882309F44ECF85EA92E047C02D
:1014D000882321F08EEA92E00E940D0CCE010E943A
:1014E000BF0441CF882321F085EB92E00E940D0CD0
:1014F000CE010E94D50837CF882309F499CF8CEB11
:1015000092E094CF882321F089E592E00E940D0CAF
:10151000CE010E94150527CF882321F082EC92E0AE
:101520000E940D0CCE010E9413031DCF882321F0D1
:101530008CEC92E00E940D0CCE010E94C50213CFEC
:10154000882321F083ED92E00E940D0CCE010E94D1
:101550005C0709CF882309F406CF88EA92E00E944D
:101560000D0C01CF882321F089ED92E00E940D0C33
:10157000CE010E942804F7CE882321F08EED92E060
:101580000E940D0CCE010E94E203EDCE882321F0D3
:1015900083EE92E00E940D0CCE010E947903E3CE0F
:1015A000882321F08BEE92E00E940D0CCE010E9468
:1015B0002F09882321F084EF92E00E940D0CCE01C8
:1015C0000E94B805D0CE882321F089E293E00E94E2
:1015D0000D0CCE010E945E05C6CE882321F08CEF53
:1015E00092E00E940D0CCE010E940A04BCCE88231A
:1015F00021F083E093E00E940D0CCE010E94AD0328
:10160000B2CE882321F08BE093E00E940D0CCE0136
:101610000E943D03A8CE882321F085E193E00E943B
:101620000D0CCE010E9429039ECE882321F08AE171
:1016300093E00E940D0CCE010E94E50594CE882314
:1016400021F086E293E00E940D0CCE010E948B05F2
:101650008ACE882321F08FE293E00E940D0CCE0108
:101660000E949A0480CE882321F083E393E00E94B5
:101670000D0CCE010E94610476CE882321F08DE30B
:1016800093E00E940D0CCE010E94AC016CCE882329
:1016900049F087E493E004C0882321F08DE493E0CF
:1016A0000E940D0C8F819885019798878F835BCE60
:1016B000882321F082E593E00E940D0CCE010E9468
:1016C0000F0951CE882321F088E593E00E940D0C8C
:1016D000CE010E942D0947CE882321F08EE593E0AC
:1016E0000E940D0C81E090E00E94010E23E0880F23
:1016F000991F2A95E1F70E94C20CFC0117821682FD
:10170000158214821382128211821082089523E0BE
:10171000880F991F2A95E1F70C94C20CFC01808177
:1017200091810895FC01828193810895FC01848157
:1017300095810895FC01868197810895FC0171834C
:1017400060830895FC01738362830895FC017583AF
:1017500064830895FC01778366830895FB010190FB
:101760000020E9F73197AF01461B570B0E94F30D9C
:1017700021E0892B09F020E0822F08956AEB73E0C5
:1017800082E993E00E94EA0D21E0892B09F020E034
:10179000822F08958091690390916803899FC00109
:1017A000112428E7289FA001299F500D112460E0F3
:1017B00070E08AE693E00E94E30D109268031092B5
:1017C00069030895CF93C82F0E94430CCA3069F46F
:1017D00080916803823020F48F5F8093680302C099
:1017E000109268031092690314C0C43511F40E946A
:1017F000CA0B80916903E091680398E2E99FF001C8
:101800001124E659FC4FE80FF11DC0838F5F8093D0
:101810006903CF9108950C94E20BCF93DF93EC0111
:101820008881882331F02097D9F321960E94E20B1A
:10183000F7CFDF91CF9108958AE00C94E20B0C94DE
:101840003C0C8F708A3010F0895C01C0805D0C9474
:10185000E20BCF93C82F82958F700E94210C8C2FA2
:10186000CF910C94210CCF93C82F892F0E94290C63
:101870008C2FCF910C94290C8091C00087FFFCCF56
:101880008091C60008959091C00095FFFCCF809391
:10189000C60008958091E20381110FC087E690E0B1
:1018A0009093C5008093C40088E18093C1008EE0CE
:1018B0008093C20081E08093E203089580530895ED
:1018C000805D0895082E000C990BC0970895805DE7
:1018D00008950F931F93CF93DF93CDB7DEB7CC540A
:1018E000D1090FB6F894DEBF0FBECDBF0E944A0CDF
:1018F0008CE4E7E0F1E0DE01119601900D928A950B
:10190000E1F784E690E00E9433098C01BE016F5F2D
:101910007F4F0E949009C8010E94B20980E090E0C8
:10192000C45BDF4F0FB6F894DEBF0FBECDBFDF91B3
:10193000CF911F910F910895991B79E004C0991FD1
:10194000961708F0961B881F7A95C9F78095089519
:10195000AA1BBB1B51E107C0AA1FBB1FA617B707D5
:1019600010F0A61BB70B881F991F5A95A9F78095F1
:101970009095BC01CD010895EE0FFF1F0590F491E5
:10198000E02D09940F931F93CF93DF93823091053D
:1019900010F482E090E0E091E503F091E60320E0AE
:1019A00030E0A0E0B0E0309719F140815181028130
:1019B000138148175907C8F08417950769F41097E1
:1019C00031F012960C93129713961C9327C0009334
:1019D000E5031093E60322C02115310519F04217E3
:1019E000530718F49A01BD01EF01DF01F801DBCFC5
:1019F00021153105F9F0281B390B2430310580F40D
:101A00008A819B816115710521F0FB01938382839B
:101A100004C09093E6038093E503FE01329644C030
:101A2000FE01E20FF31F8193919322503109398314
:101A300028833AC02091E3033091E403232B41F43F
:101A400020910301309104013093E4032093E303D8
:101A500020910101309102012115310541F42DB78A
:101A60003EB74091050150910601241B350BE091D2
:101A7000E303F091E403E217F307A0F42E1B3F0BFE
:101A80002817390778F0AC014E5F5F4F24173507F0
:101A900048F04E0F5F1F5093E4034093E30381939C
:101AA000919302C0E0E0F0E0CF01DF91CF911F9170
:101AB0000F910895CF93DF93009709F481C0FC0143
:101AC000329713821282A091E503B091E60310973A
:101AD00081F420813181820F931F2091E3033091A3
:101AE000E4032817390751F5F093E403E093E30387
:101AF00067C0ED0120E030E0CE17DF0740F44A81F7
:101B00005B819E0141155105F1F0EA01F5CFD383C8
:101B1000C28340815181840F951FC817D90759F49A
:101B200088819981840F951F0296918380838A8191
:101B30009B81938382832115310529F4F093E60379
:101B4000E093E5033DC0E901FB83EA8349915991A4
:101B5000C40FD51FEC17FD0761F480819181840FBC
:101B6000951F0296E90199838883828193819B83E3
:101B70008A83E0E0F0E012968D919C911397009794
:101B800019F0FD01DC01F7CF8D919C9111979D011A
:101B90002E5F3F4F820F931F2091E3033091E403A8
:101BA0002817390769F4309729F41092E603109248
:101BB000E50302C013821282B093E403A093E3030F
:101BC000DF91CF910895DC0101C06D9341505040E9
:101BD000E0F70895FB01DC018D910190801901105F
:101BE000D9F3990B0895FB01DC014150504030F0CE
:101BF0008D910190801919F40020B9F7881B990B79
:061C00000895F894FFCFE7
:101C0600010000E7032000BB010100010000000005
:101C16000096015400DA0196016500DA0196017317
:101C260000DA0196017400DA0196012000DA0196C5
:101C3600016600DA0196013000DA01DC0196013016
:101C460000DA01DC0196010000D901DC019F019C4C
:101C560001FFFF537461636B206F766572666C6F6C
:101C660077733A207370004572726F723A20656C12
:101C7600656D656E74206861732074686520766191
:101C86006C7565206F75747369646520736574205F
:101C960072616E67650A006469766973696F6E20A2
:101CA6006279207A65726F006D6F64756C7573204A
:101CB6006279207A65726F004E6F7420656E6F755B
:101CC6006768206D656D6F727920746F2072756E0E
:101CD60020612070726F636573732073700045789E
:101CE6006365656473206D6178696D756D206E75C9
:101CF6006D626572206F662070726F6365737365BF
:101D06007300696E64657820657863656564732021
:101D160061727261792064696D656E73696F6E00B8
:101D260066616C7365007472756500454E44505269
:101D36004F430050524F4345445552450A00494EC1
:101D46004445580A00434F424547494E0A00504110
:101D560052414D43414C4C0A00454E4450524F436C
:101D66000A00454C53450A0050524F434152470A18
:101D76000050524F434553530A005641524941427F
:101D86004C450A0041535349474E0A00434F4E53B0
:101D960054414E540A00434F4E5354525543540A2D
:101DA60000444F0A00454E445748454E0A004551E7
:101DB60055414C0A004649454C440A00474F544F8A
:101DC6000A0056414C53504143450A0056414C5572
:101DD600450A00574149540A004144440A00414E0D
:101DE600440A004449564944450A00454E44434F77
:101DF60044450A0047524541544552004D494E5507
:101E0600530A004D4F44554C4F0A004D554C54490A
:101E1600504C590A004E4F540A004E4F54475245F3
:101E2600415445520A004E4F544C4553530A004FF5
:101E3600520A0053554254524143540A00494E53E4
:101E460054414E43450A00505554490A00486572AC
:101E56006500505554420A005055544E0A004465D8
:081E66006661756C740A00004E
:00000001FF
