:100000000C9481000C949E000C949E000C949E0015
:100010000C949E000C949E000C949E000C949E00E8
:100020000C949E000C949E000C949E000C949E00D8
:100030000C949E000C949E000C949E000C949E00C8
:100040000C949E000C949E000C949E000C949E00B8
:100050000C949E000C949E000C949E000C949E00A8
:100060000C949E000C949E00620A260A660A360AC8
:10007000AD0A1A0A3A0A3E0AAD0A6A0A420A4E0A4A
:100080006E0AAD0AAD0A0E0AF509460AAD0A4A0A19
:10009000AD0A4E0A710AAD0A160A990AAD0A750A26
:1000A000AD0A790A7D0A810AAD0A850A520A890ACF
:1000B0008D0A910AAD0A1E0AAD0A2A0A220A120AFC
:1000C0002E0A950AAD0A560A5A0A320A5E0AF5093C
:1000D000AD0AAD0AAD0AAD0AAD0AAD0AAD0AAD0A68
:1000E000AD0AAD0AAD0AAD0AAD0AAD0AAD0AAD0A58
:1000F000AD0AAD0AAD0AAD0AAD0A9D0AA10AA50A6C
:10010000A90A11241FBECFEFD8E0DEBFCDBF12E099
:10011000A0E0B1E0ECE7FAE102C005900D92A23454
:10012000B107D9F722E0A2E4B2E001C01D92A13CE0
:10013000B207E1F70E94A40B0C943C0D0C94000054
:100140000E94480B0E94570B81E090E00E943C0DFA
:10015000CF93DF93EC018F856D817E812D859E8508
:10016000E22FF92FE80FF11DE80FF11D0190F0814A
:10017000E02D808191810E94D90A8F856F817885D9
:100180002D859E85E22FF92FE80FF11DE80FF11D57
:100190000190F081E02D808191810E94DD0A8F85A0
:1001A0006B857C852D859E85E22FF92FE80FF11D4B
:1001B000E80FF11D0190F081E02D808191810E9476
:1001C000E10A8F8569857A852D859E85E22FF92F35
:1001D000E80FF11DE80FF11D0190F081E02D808105
:1001E0009181DF91CF910C94E50ACF93DF93EC01DD
:1001F0008F852D859E85E22FF92FE80FF11DE80FE1
:10020000F11D0190F081E02D808191810E94C90A49
:100210009E838D838F852D859E85E22FF92FE80F94
:10022000F11DE80FF11D0190F081E02D8081918199
:100230000E94CD0A98878F838F852D859E85E22F1A
:10024000F92FE80FF11DE80FF11D0190F081E02D6D
:10025000808191810E94D10A9C878B878F852D8513
:100260009E85E22FF92FE80FF11DE80FF11D019097
:10027000F081E02D808191810E94D50A9A8789873B
:10028000DF91CF910895FC0123893489A185B2853E
:10029000AA0FBB1FA20FB31F6C9112965C9112970D
:1002A00014964C91149716968C91858B8581968126
:1002B000DC011296AA0FBB1FA20FB31F0197861B6A
:1002C00091098D939C9387819085850F911D9087CF
:1002D0008783840F911D238534852817390728F4D7
:1002E000BF0182E591E00E94A0008185928504967D
:1002F000928781870895CF93DF93DC0153968D9188
:100300009C9154971596ED91FC9116973496EE0FAB
:10031000FF1FE80FF91F808191810097D1F01A9695
:100320009C938E931997EF012297888199811C964F
:100330009C938E931B9722978881998118969C9302
:100340008E93179736978081918116969C938E9302
:100350001597DF91CF910895DC0153966D917C91B3
:10036000549715962C9115971996ED91FC911A9723
:10037000EE0FFF1FE60FF71F8081082E000C990B70
:10038000022E000C330B1816190644F4220F331FEB
:10039000FB01E20FF31F20810197F2CF17964D91D9
:1003A0005C9118974F5F5F4F18965C934E93179729
:1003B000440F551FFB01E40FF51F3183208319966D
:1003C0008D919C911A9701961A969C938E931997EA
:1003D0000895CF93DF93DC0153968D919C915497B0
:1003E0001796ED91FC911897EE0FFF1FE80FF91F7C
:1003F0001996CD91DC911A97CC0FDD1FC80FD91F2C
:10040000288180819181820F911D27FD9A9591838A
:10041000808319968D919C911A9701961A969C93B8
:100420008E931997DF91CF9108959F92AF92BF92CB
:10043000CF92DF92EF92FF920F931F93CF93DF93B0
:10044000EC01E985FA85EE0FFF1F8B899C89E80F87
:10045000F91F908088E090E00E94FD0B5C017C0118
:100460000896F5011192E817F907E1F700E010E0AE
:10047000CC24C394D12C2B893C898F819885091574
:1004800024F5FC01E01BF10BEE0FFF1FE20FF31F41
:10049000808187FD13C0982F9770F501E90FF11D3A
:1004A000859585958595960102C0220F331F8A9503
:1004B000E2F7C9019081892B808304C086E691E030
:1004C0000E94480B0F5F1F4FD6CF019689199109E3
:1004D00097FC939598878F8380E090E0F701419196
:1004E0007F01EF81F885E80FF91FEE0FFF1FE20F84
:1004F000F31F042E000C550B518340830196883066
:10050000910561F78F819885079698878F838985F4
:100510009A8502969A878987DF91CF911F910F91D3
:10052000FF90EF90DF90CF90BF90AF909F90089595
:10053000CF93DF93DC015396ED91FC91549719967C
:10054000CD91DC911A97CC0FDD1FCE0FDF1F888174
:10055000998117962D913C9118972F5F3F4F1896D0
:100560003C932E931797220F331FE20FF31F9183B3
:10057000808319968D919C911A9701961A969C9357
:100580008E931997DF91CF9108950F931F93CF9377
:10059000DF93DC0153964D915C9154971996ED9140
:1005A000FC911A97EE0FFF1FE40FF51F80819181D8
:1005B0001796ED91FC911897EE0FFF1FE40FF51FB2
:1005C000C081D181CC0FDD1FC40FD51F60E070E06A
:1005D00017962D913C9118976817790774F4099133
:1005E0001991FB01E20FF31FEE0FFF1FE40FF51F40
:1005F000118300836F5F7F4FEBCF21503109280FAC
:10060000391F18963C932E93179719968D919C91AC
:100610001A9701961A969C938E931997DF91CF9112
:100620001F910F910895FC01818592859C01220FF5
:10063000331FA389B489A20FB31F478150852D9121
:100640003C91240F351F308727830196928781873D
:100650000895DC011796ED91FC911897EE0FFF1F9E
:1006600053968D919C915497E80FF91F8081918149
:1006700080959095918380830895CF93DF93DC01DB
:1006800053962D913C9154971796ED91FC911897A4
:10069000CF01019718969C938E931797EE0FFF1F2B
:1006A000E901CE0FDF1F888111968C931197329745
:1006B000E20FF31F60817181869FA001879F500D1B
:1006C00011245183408319968D919C911A97AC0106
:1006D0004F5F5F4F1A965C934E931997880F991F3F
:1006E000F901E80FF91F808155968C93DF91CF9126
:1006F0000895CF93DF93FC0123893489A781B085C6
:10070000CD01019790878783AA0FBB1FE901CA0F0C
:10071000DB1F68816183611105C0BF0186E991E03B
:100720000E94A0001297A20FB31F8C9180830E9499
:10073000D70B90E08D939C9381859285AC014F5FA0
:100740005F4F52874187880F991FD901A80FB91FA2
:100750008C91858BDF91CF910895CF93DF93FC012E
:1007600023893489A781B085CD010197908787833C
:10077000AA0FBB1FE901CA0FDB1F688161836111EA
:1007800005C0BF0187EA91E00E94A0001297A20F66
:10079000B31F8C9180830E94D70B892F90E08D939B
:1007A0009C9381859285AC014F5F5F4F5287418753
:1007B000880F991FD901A80FB91F8C91858BDF91E4
:1007C000CF910895CF93DF93DC015396ED91FC9187
:1007D000549717962D913C911897C9010197189637
:1007E0009C938E931797220F331FEF01C20FD31FD5
:1007F0004881598111964C9322503109E20FF31F21
:100800005527808191814823592351834083DF916B
:10081000CF910895DC011796ED91FC911897EE0F9A
:10082000FF1F53968D919C915497E80FF91F80817B
:1008300091819195819591099183808319968D91EC
:100840009C911A9701961A969C938E9319970895E6
:10085000CF93DF93DC0153962D913C9154971796DB
:10086000ED91FC911897CF01019718969C938E9368
:100870001797EE0FFF1FE901CE0FDF1F488111967A
:100880004C9311973297E20FF31F80819181840F6F
:10089000911D9183808319968D919C911A97AC013B
:1008A0004F5F5F4F1A965C934E931997880F991F6D
:1008B000F901E80FF91F808155968C93DF91CF9154
:1008C0000895CF93DF93DC0153962D913C9154977B
:1008D0001796ED91FC911897CF01019718969C936C
:1008E0008E931797EE0FFF1FE901CE0FDF1F488190
:1008F00011964C9311973297E20FF31F80819181EB
:10090000841B91099183808319968D919C911A97EC
:10091000AC014F5F5F4F1A965C934E931997880F07
:10092000991FF901E80FF91F808155968C93DF918B
:10093000CF910895CF93DF93DC015396ED91FC9115
:10094000549717962D913C911897C90101971896C5
:100950009C938E931797220F331FEF01C20FD31F63
:10096000488111964C9322503109E20FF31F808188
:100970009181842B91838083DF91CF910895CF92D1
:10098000DF92EF92FF920F931F93CF93DF93EC01CF
:10099000EB89FC8989859A85DC01AA0FBB1FAE0F04
:1009A000BF1F4D915C912F8138852F5F3F4F241BD6
:1009B000350BD901A41BB50BB887AF83AA0FBB1F9A
:1009C000AE0FBF1FBD01220F331F6F01C20ED31E1A
:1009D00020E030E02417350774F4FB01E190F1903A
:1009E000BF01F601019111916F01E016F10629F4A2
:1009F0002F5F3F4FEFCF41E001C040E09C012F5FF0
:100A00003F4F3A872987442329F081E090E08D9376
:100A10009C9302C01D921C92DF91CF911F910F9168
:100A2000FF90EF90DF90CF900895CF93DF93DC019C
:100A300053968D919C9154971996CD91DC911A976C
:100A4000CC0FDD1FC80FD91F488159811796ED9132
:100A5000FC911897E41BF50B1896FC93EE931797EF
:100A6000EE0FFF1FE80FF91F1182108220E030E027
:100A700024173507BCF4C191D19160817181C617EB
:100A8000D70769F01796ED91FC911897EE0FFF1FAD
:100A9000E80FF91F81E090E09183808303C02F5F0E
:100AA0003F4FE6CF19968D919C911A9701961A9611
:100AB0009C938E931997DF91CF910895CF93DF93F5
:100AC000DC015396ED91FC91549717962D913C9132
:100AD0001897C901019718969C938E931797220F28
:100AE000331FEF01C20FD31F4881598111964C93D8
:100AF00022503109E20FF31F552781E090E0208159
:100B000031812417350710F080E090E091838083D5
:100B1000DF91CF910895CF93DF93DC015396ED9150
:100B2000FC91549717962D913C911897C901019704
:100B300018969C938E931797220F331FEF01C20FC5
:100B4000D31F4881598111964C9322503109E20FED
:100B5000F31F552781E090E020813181241735076C
:100B600010F480E090E091838083DF91CF9108952D
:100B7000CF93DF93DC015396ED91FC915497179638
:100B80002D913C911897C901019718969C938E93CB
:100B90001797220F331FEF01C20FD31F48815981CE
:100BA00011964C9322503109E20FF31F552781E033
:100BB00090E0208131814217530710F080E090E0EF
:100BC00091838083DF91CF910895CF93DF93DC01F0
:100BD0005396ED91FC91549717962D913C9118974F
:100BE000C901019718969C938E931797220F331F74
:100BF000EF01C20FD31F4881598111964C932250A7
:100C00003109E20FF31F552781E090E02081318107
:100C10004217530710F480E090E091838083DF91C6
:100C2000CF9108950F931F93CF93DF93DC015396D9
:100C30004D915C9154971996ED91FC911A97EE0F96
:100C4000FF1FE40FF51F6081062E000C770B17962F
:100C50002D913C911897261B370BE9012197189687
:100C6000DC93CE931797220F331FFA01E20FF31F85
:100C70008081CE5F880F990BFA01E80FF91F9195DB
:100C8000819591090C2F000F110B20E030E0261701
:100C900037076CF4AF01480F591F400F511FEA018D
:100CA00048815981419351932F5F3F4FF0CF19965F
:100CB0008D919C911A9701961A969C938E931997F1
:100CC000DF91CF911F910F910895CF93DF93FC0196
:100CD00083899489A185B285AA0FBB1FA80FB91F6C
:100CE0002C9145815681C781D0852196CC0FDD1F7F
:100CF000C80FD91F5983488343855485C781D08540
:100D00002396CC0FDD1FC80FD91F59834883A781B5
:100D1000B0851496AA0FBB1FA80FB91F81859285B5
:100D200001968D939C938781908596838583049605
:100D300090878783818592850197820F911D27FD7A
:100D40009A9592878187DF91CF910895CF93DF9312
:100D5000EC01EB89FC8949855A85CA0101969A877D
:100D60008987440F551FDF01A40FB51F8D919C91FA
:100D70002F8138852F5F3F4F38872F83220F331FF6
:100D8000E20FF31F91838083DF91CF91089508953F
:100D9000CF93DF93FC0183899489C781D085CC0FE1
:100DA000DD1FC80FD91FA185B285AA0FBB1FA80FD1
:100DB000B91F2C91A881B981A20FB11D27FDBA9549
:100DC0001196AA0FBB1FA80FB91F2D913C91119727
:100DD00012974D915C915983488345815681A78133
:100DE000B0851196AA0FBB1FA80FB91F4D935C9336
:100DF00043855485A781B0851396AA0FBB1FA80F02
:100E0000B91F4D935C93A781B0851496AA0FBB1FA1
:100E1000A80FB91F8185928501968D939C93878138
:100E20009085968385830496908787833287218770
:100E3000DF91CF910895CF93DF93FC01A389B4890B
:100E400021853285E901CC0FDD1FCA0FDB1F6881C8
:100E500087819085AC01440F551FA40FB51F4D919C
:100E60005C914130510519F42F5F3F4F06C021506E
:100E70003109260F311D67FD3A9532872187019789
:100E800090878783DF91CF910895FC01218532857A
:100E9000C901880F991FA389B489A80FB91F8C9124
:100EA00021503109280F311D87FD3A95328721875E
:100EB00008950C9445070895CF93DF93EC0189853D
:100EC0009A859C01220F331FEB89FC89E20FF31FE7
:100ED00020810197820F911D27FD9A959A87898716
:100EE000CE010E94A8002F85422F50E0888990E013
:100EF00001974817590714F01F8602C02F5F2F87EC
:100F0000CE01DF91CF910C94F5000895FC01A389E7
:100F1000B489818592859C01220F331FA20FB31FD4
:100F20004D915C91119712962C91258B27813085DC
:100F3000240F351F438554854217530728F4BF01FA
:100F400087EB91E00E94A000029692878187089526
:100F5000FC018089823000F18785208990E0422F52
:100F600050E0415051098417950784F4A585B68552
:100F7000880F991FA80FB91F12968D919C911397F6
:100F80008D939C9387858F5F8787E6CF2150208B39
:100F90001786CF010C94F500818592859C01220F64
:100FA000331FA389B489A20FB31F4C91218930E06C
:100FB00030872783228930E0348723870197840F85
:100FC000911D47FD9A959287818708958F929F92F0
:100FD000BF92CF92DF92EF92FF920F931F93CF9326
:100FE000DF93EC018B899C89E985FA85EE0FFF1F61
:100FF000E80FF91F208182818D8B288B2B3028F000
:10100000BE018DED91E00E94A0004F815885498B73
:101010008B859C858A8B841B950BC22E220FDD0845
:10102000B6010E94E30BB12CE62E660FFF080B2DD4
:1010300010E00C151D050CF060C08F8198858E0D99
:101040009F1D9C878B87000F111FED85FE85E00F8C
:10105000F11F808091808AE090E00E94B10AF40143
:10106000918380836D817E81ED85FE85E00FF11F88
:101070000190F081E02D808191810E94D90A6F81D9
:101080007885ED85FE85E00FF11F0190F081E02D60
:10109000808191810E94DD0A6B857C85ED85FE85CE
:1010A000E00FF11F0190F081E02D808191810E947D
:1010B000E10A69857A85FB01E00FF11F3396EE0F97
:1010C000FF1F8B899C89E80FF91F6150710980818E
:1010D0009181680F791F8D859E85FC01E00FF11FBE
:1010E0000190F081E02D808191810E94E50A8B853D
:1010F0009C8598878F83B3949ACF1F86CE01DF910A
:10110000CF911F910F91FF90EF90DF90CF90BF9004
:101110009F908F900C94F5001F93CF93DF93FC0169
:1011200063897489A185B285AA0FBB1FA60FB71F5B
:10113000CC9112961C9112971496DC9114971696E6
:101140008C91858B47815085CA01880F991FDB01DF
:10115000A80FB91F2D913C914150510950874783E9
:101160002C1710F0121728F4BF0181E092E00E94C2
:10117000A0000297DB01A80FB91F33272C1B3109F0
:10118000D29FC001D39F900D11242D913C911197B6
:10119000820F931F8D939C938185928504969287ED
:1011A0008187DF91CF911F910895CF93DF93DC0169
:1011B00053968D919C9154971796ED91FC911897A9
:1011C000EE0FFF1FE80FF91F1996CD91DC911A97CA
:1011D000CC0FDD1FC80FD91F288180819181820F1C
:1011E000911D9183808319968D919C911A970196F8
:1011F0001A969C938E931997DF91CF910895CF9370
:10120000DF93EC018FE192E00E94480BEF81F885BB
:10121000EE0FFF1F8B899C89E80FF91F80810E94C8
:10122000A00B0E94460B8F819885019798878F832A
:10123000DF91CF910895CF93DF93EC018AE292E0A2
:101240000E94480B0E94570BEF81F885EE0FFF1F9D
:101250008B899C89E80FF91F80810E94A00B0E9456
:10126000460B8F819885019798878F83DF91CF9167
:101270000895CF93DF93EC01EF81F885EE0FFF1F08
:101280008B899C89E80FF91F80819181892B19F046
:101290008DE392E002C087E392E00E94480B8F81C9
:1012A0009885019798878F83DF91CF9108950C944B
:1012B000570B80E090E00E943C0DEF92FF920F935D
:1012C0001F93CF93DF9326E1AC01249FC001259F9C
:1012D000900D11240E94FD0BEC01198218821A86D0
:1012E0001986198A1A8A1F8681E0888B8AE090E025
:1012F0000E94C20A9E878D8700E010E0ED84FE8484
:10130000E00EF11E8AE090E00E94B10AF70191839D
:1013100080830E5F1F4F0431110581F784E690E052
:101320000E94FD0B9B838A831C8280E49CE90E94BF
:10133000FD0B9C8B8B8BFC019C01205C3346119236
:101340001192E217F307D9F720E034E03C872B87AE
:101350001E821D8224E030E038872F83FC01118635
:1013600010861D8ACE01DF91CF911F910F91FF90C2
:10137000EF900895CF92DF92EF92FF920F931F9319
:10138000CF93DF936C01DC011B968D919C911C9790
:101390001A969C938E9319978B01C0E0D0E0F801C8
:1013A000E190F1908F01C7010E946E0B0E94570BD4
:1013B000FFEFEF16FF0669F0D6015396ED91FC9111
:1013C0005497EC0FFD1FF182E0822296CC34D105B8
:1013D00031F7DF91CF911F910F91FF90EF90DF9048
:1013E000CF900895EC012B893C8989859A85AC01C1
:1013F0004F5F5F4F5A874987880F991FF901E80FA0
:10140000F91F0190F081E02DE059F140ED34F10534
:1014100008F0A3C0EC5CFF4F0C94F70BCE010E94C8
:101420007B01E1CFCE010E944301DDCFCE010E94BE
:101430008C08D9CFCE010E94E607D5CFCE010E94FD
:10144000C806D1CFCE010E946506CDCFCE010E9445
:10145000A807C9CFCE010E94A606C5CFCE010E9423
:101460008607C1CFCE010E94E901BDCFCE010E9407
:101470001206B9CFCE010E949802B5CFCE010E94CC
:101480001502B1CFCE010E941B07ADCFCE010E9445
:10149000BF04A9CFCE010E94D508A5CFCE010E94DE
:1014A0004507A1CFCE010E9415059DCFCE010E9418
:1014B000130399CFCE010E94C50295CFCE010E94A1
:1014C0005C0791CFCE010E9428048DCFCE010E94EF
:1014D000E20389CFCE010E94790385CFCE010E941D
:1014E0005909CE010E94B8057ECFCE010E945E054B
:1014F0007ACFCE010E940A0476CFCE010E94AD03BE
:1015000072CFCE010E943D036ECFCE010E9429030F
:101510006ACFCE010E94E50566CFCE010E948B0501
:1015200062CFCE010E949A045ECFCE010E94610478
:101530005ACFCE010E94AC0156CFCE010E94FF08C7
:1015400052CFCE010E941B094ECFCE010E94390915
:101550004ACFCE010E94570946CF81E090E00E9419
:101560003C0D23E0880F991F2A95E1F70E94FD0B9F
:10157000FC01178216821582148213821282118254
:101580001082089523E0880F991F2A95E1F70C94A3
:10159000FD0BFC01808191810895FC018281938182
:1015A0000895FC01848195810895FC0186819781CD
:1015B0000895FC01718360830895FC017383628345
:1015C0000895FC01758364830895FC017783668325
:1015D0000895FB0101900020E9F73197AF01461B08
:1015E000570B0E942E0D21E0892B09F020E0822F5D
:1015F000089564E972E08CE692E00E94250D21E0F6
:10160000892B09F020E0822F089580914302909168
:101610004202899FC001112428E7289FA001299F29
:10162000500D112460E070E084E492E00E941E0DF1
:1016300010924202109243020895CF93C82F0E9445
:101640007E0BCA3069F480914202823020F48F5FB1
:101650008093420202C0109242021092430214C0D0
:10166000C43511F40E94050B80914302E0914202BF
:1016700098E2E99FF0011124EC5BFD4FE80FF11DAA
:10168000C0838F5F80934302CF9108950C941D0B0C
:10169000CF93DF93EC018881882331F02097D9F331
:1016A00021960E941D0BF7CFDF91CF9108958AE01C
:1016B0000C941D0B0C94770B8F708A3010F0895CA2
:1016C00001C0805D0C941D0BCF93C82F82958F7045
:1016D0000E945C0B8C2FCF910C945C0BCF93C82F86
:1016E000892F0E94640B8C2FCF910C94640B8091F6
:1016F000C00087FFFCCF8091C60008959091C00084
:1017000095FFFCCF8093C60008958091BC028111A3
:101710000FC087E690E09093C5008093C40088E1F5
:101720008093C1008EE08093C20081E08093BC0270
:10173000089580530895082E000C990BC0970895C2
:10174000805D0895805D08950F931F93CF93DF937D
:10175000CDB7DEB7CC54D1090FB6F894DEBF0FBEBB
:10176000CDBF0E94850B8CE4E6E0F1E0DE0111962E
:1017700001900D928A95E1F784E690E00E945D0960
:101780008C01BE016F5F7F4F0E94BA09C8010E94A1
:10179000F20980E090E0C45BDF4F0FB6F894DEBF43
:1017A0000FBECDBFDF91CF911F910F910895991B6F
:1017B00079E004C0991F961708F0961B881F7A9548
:1017C000C9F780950895AA1BBB1B51E107C0AA1F4A
:1017D000BB1FA617B70710F0A61BB70B881F991FD2
:1017E0005A95A9F780959095BC01CD010895EE0F0B
:1017F000FF1F0590F491E02D09940F931F93CF9351
:10180000DF938230910510F482E090E0E091BF0216
:10181000F091C00220E030E0A0E0B0E0309719F194
:10182000408151810281138148175907C8F08417FC
:10183000950769F4109731F012960C93129713964E
:101840001C9327C00093BF021093C00222C0211531
:10185000310519F04217530718F49A01BD01EF0141
:10186000DF01F801DBCF21153105F9F0281B390B19
:101870002430310580F48A819B816115710521F046
:10188000FB019383828304C09093C0028093BF02C4
:10189000FE01329644C0FE01E20FF31F8193919343
:1018A00022503109398328833AC02091BD023091FA
:1018B000BE02232B41F420910201309103013093A9
:1018C000BE022093BD02209100013091010121153B
:1018D000310541F42DB73EB7409104015091050107
:1018E000241B350BE091BD02F091BE02E217F30715
:1018F000A0F42E1B3F0B2817390778F0AC014E5F80
:101900005F4F2417350748F04E0F5F1F5093BE02FC
:101910004093BD028193919302C0E0E0F0E0CF01DB
:10192000DF91CF911F910F910895CF93DF9300978F
:1019300009F481C0FC01329713821282A091BF0288
:10194000B091C002109781F420813181820F931FE2
:101950002091BD023091BE022817390751F5F0934E
:10196000BE02E093BD0267C0ED0120E030E0CE177B
:10197000DF0740F44A815B819E0141155105F1F07A
:10198000EA01F5CFD383C28340815181840F951F33
:10199000C817D90759F488819981840F951F029639
:1019A000918380838A819B81938382832115310572
:1019B00029F4F093C002E093BF023DC0E901FB832C
:1019C000EA8349915991C40FD51FEC17FD0761F4C3
:1019D00080819181840F951F0296E9019983888304
:1019E000828193819B838A83E0E0F0E012968D915F
:1019F0009C911397009719F0FD01DC01F7CF8D91B1
:101A00009C9111979D012E5F3F4F820F931F209154
:101A1000BD023091BE022817390769F4309729F4C6
:101A20001092C0021092BF0202C013821282B093C1
:101A3000BE02A093BD02DF91CF910895DC0101C0E9
:101A40006D9341505040E0F70895FB01DC018D910A
:101A5000019080190110D9F3990B0895FB01DC0165
:101A60004150504030F08D910190801919F40020C0
:0C1A7000B9F7881B990B0895F894FFCF7C
:101A7C000000C1022000BB010100010000000000B9
:101A8C0096015400DA0196016500DA0196017300A3
:101A9C00DA0196017400DA0196012000DA01960150
:101AAC006600DA0196013000DA01DC0196013000A3
:101ABC00DA01DC0196010000D901DC019F019C01D7
:101ACC00FFFF537461636B206F766572666C6F7782
:101ADC00733A207370004572726F723A20656C65B0
:101AEC006D656E7420686173207468652076616C16
:101AFC007565206F757473696465207365742072E5
:101B0C00616E67650A006469766973696F6E20623D
:101B1C0079207A65726F006D6F64756C75732062D5
:101B2C0079207A65726F004E6F7420656E6F7567E1
:101B3C0068206D656D6F727920746F2072756E20E0
:101B4C00612070726F6365737320737000457863E6
:101B5C0065656473206D6178696D756D206E756D4A
:101B6C00626572206F662070726F63657373657344
:101B7C0000696E64657820657863656564732061BF
:101B8C00727261792064696D656E73696F6E005055
:101B9C007574496E7465676572005075744368613D
:101BAC007261637465720066616C73650074727542
:021BBC006500C2
:00000001FF
