:100000000C9481000C949E000C949E000C949E0015
:100010000C949E000C949E000C949E000C949E00E8
:100020000C949E000C949E000C949E000C949E00D8
:100030000C949E000C949E000C949E000C949E00C8
:100040000C949E000C949E000C949E000C949E00B8
:100050000C949E000C949E000C949E000C949E00A8
:100060000C949E000C949E00A90A260AB10A490A23
:10007000390B120A510A590A390BB90A610A2E0AB8
:10008000C10A390B390BFA09690A6C0A390B740A6F
:10009000390B7C0AC80A390B0A0A140B390BCC0A33
:1000A000390BD40ADC0AE40A390BEC0A840AF40A94
:1000B000FC0A040B390B1A0A390B310A220A020A0C
:1000C000390A0C0B390B8C0A940A410A9C0AA40ABF
:1000D000390B390B390B390B390B390B390B390B00
:1000E000390B390B390B390B390B390B390B390BF0
:1000F000390B390B390B390B390B1C0B1F0B290B27
:10010000310B11241FBECFEFD8E0DEBFCDBF13E00F
:10011000A0E0B1E0ECE9FBE102C005900D92A83649
:10012000B107D9F723E0A8E6B3E001C01D92A73ECE
:10013000B207E1F70E94340C0C94CC0D0C94000033
:100140000E94D80B0E94E70B81E090E00E94CC0D4A
:10015000CF93DF93EC018F856D817E812D859E8508
:10016000E22FF92FE80FF11DE80FF11D0190F0814A
:10017000E02D808191810E94690B8F856F81788548
:100180002D859E85E22FF92FE80FF11DE80FF11D57
:100190000190F081E02D808191810E946D0B8F850F
:1001A0006B857C852D859E85E22FF92FE80FF11D4B
:1001B000E80FF11D0190F081E02D808191810E9476
:1001C000710B8F8569857A852D859E85E22FF92FA4
:1001D000E80FF11DE80FF11D0190F081E02D808105
:1001E0009181DF91CF910C94750BCF93DF93EC014C
:1001F0008F852D859E85E22FF92FE80FF11DE80FE1
:10020000F11D0190F081E02D808191810E94590BB8
:100210009E838D838F852D859E85E22FF92FE80F94
:10022000F11DE80FF11D0190F081E02D8081918199
:100230000E945D0B98878F838F852D859E85E22F89
:10024000F92FE80FF11DE80FF11D0190F081E02D6D
:10025000808191810E94610B9C878B878F852D8582
:100260009E85E22FF92FE80FF11DE80FF11D019097
:10027000F081E02D808191810E94650B9A878987AA
:10028000DF91CF910895FC0123893489A185B2853E
:10029000AA0FBB1FA20FB31F6C9112965C9112970D
:1002A00014964C91149716968C91858B8581968126
:1002B000DC011296AA0FBB1FA20FB31F0197861B6A
:1002C00091098D939C9387819085850F911D9087CF
:1002D0008783840F911D238534852817390728F4D7
:1002E000BF0182E591E00E94A0008185928504967D
:1002F000928781870895CF93DF93DC0153968D9188
:100300009C9154971596ED91FC9116973496EE0FAB
:10031000FF1FE80FF91F808191810097D1F01A9695
:100320009C938E931997EF012297888199811C964F
:100330009C938E931B9722978881998118969C9302
:100340008E93179736978081918116969C938E9302
:100350001597DF91CF910895DC0153966D917C91B3
:10036000549715962C9115971996ED91FC911A9723
:10037000EE0FFF1FE60FF71F8081082E000C990B70
:10038000022E000C330B1816190644F4220F331FEB
:10039000FB01E20FF31F20810197F2CF17964D91D9
:1003A0005C9118974F5F5F4F18965C934E93179729
:1003B000440F551FFB01E40FF51F3183208319966D
:1003C0008D919C911A9701961A969C938E931997EA
:1003D0000895CF93DF93DC0153968D919C915497B0
:1003E0001796ED91FC911897EE0FFF1FE80FF91F7C
:1003F0001996CD91DC911A97CC0FDD1FC80FD91F2C
:10040000288180819181820F911D27FD9A9591838A
:10041000808319968D919C911A9701961A969C93B8
:100420008E931997DF91CF9108959F92AF92BF92CB
:10043000CF92DF92EF92FF920F931F93CF93DF93B0
:10044000EC01E985FA85EE0FFF1F8B899C89E80F87
:10045000F91F908088E090E00E948D0C5C017C0187
:100460000896F5011192E817F907E1F700E010E0AE
:10047000CC24C394D12C2B893C898F819885091574
:1004800024F5FC01E01BF10BEE0FFF1FE20FF31F41
:10049000808187FD13C0982F9770F501E90FF11D3A
:1004A000859585958595960102C0220F331F8A9503
:1004B000E2F7C9019081892B808304C086E691E030
:1004C0000E94D80B0F5F1F4FD6CF01968919910953
:1004D00097FC939598878F8380E090E0F701419196
:1004E0007F01EF81F885E80FF91FEE0FFF1FE20F84
:1004F000F31F042E000C550B518340830196883066
:10050000910561F78F819885079698878F838985F4
:100510009A8502969A878987DF91CF911F910F91D3
:10052000FF90EF90DF90CF90BF90AF909F90089595
:10053000CF93DF93DC015396ED91FC91549719967C
:10054000CD91DC911A97CC0FDD1FCE0FDF1F888174
:10055000998117962D913C9118972F5F3F4F1896D0
:100560003C932E931797220F331FE20FF31F9183B3
:10057000808319968D919C911A9701961A969C9357
:100580008E931997DF91CF9108950F931F93CF9377
:10059000DF93DC0153964D915C9154971996ED9140
:1005A000FC911A97EE0FFF1FE40FF51F80819181D8
:1005B0001796ED91FC911897EE0FFF1FE40FF51FB2
:1005C000C081D181CC0FDD1FC40FD51F60E070E06A
:1005D00017962D913C9118976817790774F4099133
:1005E0001991FB01E20FF31FEE0FFF1FE40FF51F40
:1005F000118300836F5F7F4FEBCF21503109280FAC
:10060000391F18963C932E93179719968D919C91AC
:100610001A9701961A969C938E931997DF91CF9112
:100620001F910F910895FC01818592859C01220FF5
:10063000331FA389B489A20FB31F478150852D9121
:100640003C91240F351F308727830196928781873D
:100650000895DC011796ED91FC911897EE0FFF1F9E
:1006600053968D919C915497E80FF91F8081918149
:1006700080959095918380830895CF93DF93DC01DB
:1006800053962D913C9154971796ED91FC911897A4
:10069000CF01019718969C938E931797EE0FFF1F2B
:1006A000E901CE0FDF1F888111968C931197329745
:1006B000E20FF31F60817181869FA001879F500D1B
:1006C00011245183408319968D919C911A97AC0106
:1006D0004F5F5F4F1A965C934E931997880F991F3F
:1006E000F901E80FF91F808155968C93DF91CF9126
:1006F0000895CF93DF93FC0123893489A781B085C6
:10070000CD01019790878783AA0FBB1FE901CA0F0C
:10071000DB1F68816183611105C0BF0186E991E03B
:100720000E94A0001297A20FB31F8C9180830E9499
:10073000670C90E08D939C9381859285AC014F5F0F
:100740005F4F52874187880F991FD901A80FB91FA2
:100750008C91858BDF91CF910895CF93DF93FC012E
:1007600023893489A781B085CD010197908787833C
:10077000AA0FBB1FE901CA0FDB1F688161836111EA
:1007800005C0BF0187EA91E00E94A0001297A20F66
:10079000B31F8C9180830E94670C892F90E08D930A
:1007A0009C9381859285AC014F5F5F4F5287418753
:1007B000880F991FD901A80FB91F8C91858BDF91E4
:1007C000CF910895CF93DF93DC015396ED91FC9187
:1007D000549717962D913C911897C9010197189637
:1007E0009C938E931797220F331FEF01C20FD31FD5
:1007F0004881598111964C9322503109E20FF31F21
:100800005527808191814823592351834083DF916B
:10081000CF910895DC011796ED91FC911897EE0F9A
:10082000FF1F53968D919C915497E80FF91F80817B
:1008300091819195819591099183808319968D91EC
:100840009C911A9701961A969C938E9319970895E6
:10085000CF93DF93DC0153962D913C9154971796DB
:10086000ED91FC911897CF01019718969C938E9368
:100870001797EE0FFF1FE901CE0FDF1F488111967A
:100880004C9311973297E20FF31F80819181840F6F
:10089000911D9183808319968D919C911A97AC013B
:1008A0004F5F5F4F1A965C934E931997880F991F6D
:1008B000F901E80FF91F808155968C93DF91CF9154
:1008C0000895CF93DF93DC0153962D913C9154977B
:1008D0001796ED91FC911897CF01019718969C936C
:1008E0008E931797EE0FFF1FE901CE0FDF1F488190
:1008F00011964C9311973297E20FF31F80819181EB
:10090000841B91099183808319968D919C911A97EC
:10091000AC014F5F5F4F1A965C934E931997880F07
:10092000991FF901E80FF91F808155968C93DF918B
:10093000CF910895CF93DF93DC015396ED91FC9115
:10094000549717962D913C911897C90101971896C5
:100950009C938E931797220F331FEF01C20FD31F63
:10096000488111964C9322503109E20FF31F808188
:100970009181842B91838083DF91CF910895CF92D1
:10098000DF92EF92FF920F931F93CF93DF93EC01CF
:10099000EB89FC8989859A85DC01AA0FBB1FAE0F04
:1009A000BF1F4D915C912F8138852F5F3F4F241BD6
:1009B000350BD901A41BB50BB887AF83AA0FBB1F9A
:1009C000AE0FBF1FBD01220F331F6F01C20ED31E1A
:1009D00020E030E02417350774F4FB01E190F1903A
:1009E000BF01F601019111916F01E016F10629F4A2
:1009F0002F5F3F4FEFCF41E001C040E09C012F5FF0
:100A00003F4F3A872987442329F081E090E08D9376
:100A10009C9302C01D921C92DF91CF911F910F9168
:100A2000FF90EF90DF90CF900895CF93DF93DC019C
:100A300053968D919C9154971996CD91DC911A976C
:100A4000CC0FDD1FC80FD91F488159811796ED9132
:100A5000FC911897E41BF50B1896FC93EE931797EF
:100A6000EE0FFF1FE80FF91F1182108220E030E027
:100A700024173507BCF4C191D19160817181C617EB
:100A8000D70769F01796ED91FC911897EE0FFF1FAD
:100A9000E80FF91F81E090E09183808303C02F5F0E
:100AA0003F4FE6CF19968D919C911A9701961A9611
:100AB0009C938E931997DF91CF910895CF93DF93F5
:100AC000DC015396ED91FC91549717962D913C9132
:100AD0001897C901019718969C938E931797220F28
:100AE000331FEF01C20FD31F4881598111964C93D8
:100AF00022503109E20FF31F552781E090E0208159
:100B000031812417350710F080E090E091838083D5
:100B1000DF91CF910895CF93DF93DC015396ED9150
:100B2000FC91549717962D913C911897C901019704
:100B300018969C938E931797220F331FEF01C20FC5
:100B4000D31F4881598111964C9322503109E20FED
:100B5000F31F552781E090E020813181241735076C
:100B600010F480E090E091838083DF91CF9108952D
:100B7000CF93DF93DC015396ED91FC915497179638
:100B80002D913C911897C901019718969C938E93CB
:100B90001797220F331FEF01C20FD31F48815981CE
:100BA00011964C9322503109E20FF31F552781E033
:100BB00090E0208131814217530710F080E090E0EF
:100BC00091838083DF91CF910895CF93DF93DC01F0
:100BD0005396ED91FC91549717962D913C9118974F
:100BE000C901019718969C938E931797220F331F74
:100BF000EF01C20FD31F4881598111964C932250A7
:100C00003109E20FF31F552781E090E02081318107
:100C10004217530710F480E090E091838083DF91C6
:100C2000CF9108950F931F93CF93DF93DC015396D9
:100C30004D915C9154971996ED91FC911A97EE0F96
:100C4000FF1FE40FF51F6081062E000C770B17962F
:100C50002D913C911897261B370BE9012197189687
:100C6000DC93CE931797220F331FFA01E20FF31F85
:100C70008081CE5F880F990BFA01E80FF91F9195DB
:100C8000819591090C2F000F110B20E030E0261701
:100C900037076CF4AF01480F591F400F511FEA018D
:100CA00048815981419351932F5F3F4FF0CF19965F
:100CB0008D919C911A9701961A969C938E931997F1
:100CC000DF91CF911F910F910895CF93DF93FC0196
:100CD00083899489A185B285AA0FBB1FA80FB91F6C
:100CE0002C9145815681C781D0852196CC0FDD1F7F
:100CF000C80FD91F5983488343855485C781D08540
:100D00002396CC0FDD1FC80FD91F59834883A781B5
:100D1000B0851496AA0FBB1FA80FB91F81859285B5
:100D200001968D939C938781908596838583049605
:100D300090878783818592850197820F911D27FD7A
:100D40009A9592878187DF91CF910895CF93DF9312
:100D5000EC01EB89FC8949855A85CA0101969A877D
:100D60008987440F551FDF01A40FB51F8D919C91FA
:100D70002F8138852F5F3F4F38872F83220F331FF6
:100D8000E20FF31F91838083DF91CF91089508953F
:100D9000CF93DF93FC0183899489C781D085CC0FE1
:100DA000DD1FC80FD91FA185B285AA0FBB1FA80FD1
:100DB000B91F2C91A881B981A20FB11D27FDBA9549
:100DC0001196AA0FBB1FA80FB91F2D913C91119727
:100DD00012974D915C915983488345815681A78133
:100DE000B0851196AA0FBB1FA80FB91F4D935C9336
:100DF00043855485A781B0851396AA0FBB1FA80F02
:100E0000B91F4D935C93A781B0851496AA0FBB1FA1
:100E1000A80FB91F8185928501968D939C93878138
:100E20009085968385830496908787833287218770
:100E3000DF91CF910895CF93DF93FC01A389B4890B
:100E400021853285E901CC0FDD1FCA0FDB1F6881C8
:100E500087819085AC01440F551FA40FB51F4D919C
:100E60005C914130510519F42F5F3F4F06C021506E
:100E70003109260F311D67FD3A9532872187019789
:100E800090878783DF91CF910895FC01218532857A
:100E9000C901880F991FA389B489A80FB91F8C9124
:100EA00021503109280F311D87FD3A95328721875E
:100EB00008950C9445070895CF93DF93EC0189853D
:100EC0009A859C01220F331FEB89FC89E20FF31FE7
:100ED00020810197820F911D27FD9A959A87898716
:100EE000CE010E94A8002F85422F50E0888990E013
:100EF00001974817590714F01F8602C02F5F2F87EC
:100F0000CE01DF91CF910C94F5000895FC01A389E7
:100F1000B489818592859C01220F331FA20FB31FD4
:100F20004D915C91119712962C91258B27813085DC
:100F3000240F351F438554854217530728F4BF01FA
:100F400087EB91E00E94A000029692878187089526
:100F5000FC018089823000F18785208990E0422F52
:100F600050E0415051098417950784F4A585B68552
:100F7000880F991FA80FB91F12968D919C911397F6
:100F80008D939C9387858F5F8787E6CF2150208B39
:100F90001786CF010C94F500818592859C01220F64
:100FA000331FA389B489A20FB31F4C91218930E06C
:100FB00030872783228930E0348723870197840F85
:100FC000911D47FD9A959287818708958F929F92F0
:100FD000BF92CF92DF92EF92FF920F931F93CF9326
:100FE000DF93EC018B899C89E985FA85EE0FFF1F61
:100FF000E80FF91F208182818D8B288B2B3028F000
:10100000BE018DED91E00E94A0004F815885498B73
:101010008B859C858A8B841B950BC22E220FDD0845
:10102000B6010E94730CB12CE62E660FFF080B2D43
:1010300010E00C151D050CF060C08F8198858E0D99
:101040009F1D9C878B87000F111FED85FE85E00F8C
:10105000F11F808091808AE090E00E94410BF401B2
:10106000918380836D817E81ED85FE85E00FF11F88
:101070000190F081E02D808191810E94690B6F8148
:101080007885ED85FE85E00FF11F0190F081E02D60
:10109000808191810E946D0B6B857C85ED85FE853D
:1010A000E00FF11F0190F081E02D808191810E947D
:1010B000710B69857A85FB01E00FF11F3396EE0F06
:1010C000FF1F8B899C89E80FF91F6150710980818E
:1010D0009181680F791F8D859E85FC01E00FF11FBE
:1010E0000190F081E02D808191810E94750B8B85AC
:1010F0009C8598878F83B3949ACF1F86CE01DF910A
:10110000CF911F910F91FF90EF90DF90CF90BF9004
:101110009F908F900C94F5001F93CF93DF93FC0169
:1011200063897489A185B285AA0FBB1FA60FB71F5B
:10113000CC9112961C9112971496DC9114971696E6
:101140008C91858B47815085CA01880F991FDB01DF
:10115000A80FB91F2D913C914150510950874783E9
:101160002C1710F0121728F4BF0181E092E00E94C2
:10117000A0000297DB01A80FB91F33272C1B3109F0
:10118000D29FC001D39F900D11242D913C911197B6
:10119000820F931F8D939C938185928504969287ED
:1011A0008187DF91CF911F910895CF93DF93DC0169
:1011B00053968D919C9154971796ED91FC911897A9
:1011C000EE0FFF1FE80FF91F1996CD91DC911A97CA
:1011D000CC0FDD1FC80FD91F288180819181820F1C
:1011E000911D9183808319968D919C911A970196F8
:1011F0001A969C938E931997DF91CF910895FC01D5
:101200002781308521503109308727830895FC01DB
:101210002781308521503109308727830895CF9366
:10122000DF93EC01EF81F885EE0FFF1F8B899C891E
:10123000E80FF91F80819181892B19F085E292E0F6
:1012400002C08FE192E00E94D80B8F8198850197B0
:1012500098878F83DF91CF9108950C94E70B80E0FE
:1012600090E00E94CC0DEF92FF920F931F93CF93CB
:10127000DF9326E1AC01249FC001259F900D11242E
:101280000E948D0CEC01198218821A861986198A1F
:101290001A8A1F8681E0888B8AE090E00E94520BB8
:1012A0009E878D8700E010E0ED84FE84E00EF11E45
:1012B0008AE090E00E94410BF701918380830E5FEA
:1012C0001F4F0431110581F788EC90E00E948D0CCE
:1012D0009B838A831C828EEF9FE10E948D0C9C8BE6
:1012E0008B8BFC019C012250304E11921192E2171F
:1012F000F307D9F720E034E03C872B871E821D825C
:1013000024E030E038872F83FC01118610861D8A87
:10131000CE01DF91CF911F910F91FF90EF90089533
:10132000EF92FF920F931F93CF93DF938C017B017A
:10133000DC011B96CD91DC911C971A96DC93CE9321
:101340001997CE010E94FE0B0E94E70BFE01EE0FE3
:10135000FF1FEE0DFF1DC115B8ECDB07A8F4CF0190
:101360008E199F09219131912F3FBFEF3B0761F00B
:10137000D80153964D915C915497DA01A80FB91F8B
:101380002D933C932196E7CFDF91CF911F910F9141
:10139000FF90EF900895EC01EB89FC8989859A858F
:1013A0009C012F5F3F4F3A872987880F991FE80FCD
:1013B000F91F00811181005911408AE292E00E94D8
:1013C000D80BE985FA85E150F048EE0FFF1F8B89B5
:1013D0009C89E80FF91F808191810E94FE0B0E9479
:1013E000E70B0D34110508F044C1F801EC5CFF4F28
:1013F0000C94870C83E392E00E94D80BCE010E94EC
:101400007B01CACF8BE392E00E94D80BCE010E94F1
:101410004301C2CF86E492E00E94D80BCE010E9425
:101420008C08BACF8DE492E00E94D80BCE010E94C6
:10143000E607B2CF86E592E00E94D80BCE010E946B
:10144000C806AACFCE010E946506A6CF81E692E02B
:101450000E94D80BCE010E94A8079ECF8AE692E098
:101460004DC080E792E00E94D80BCE010E94A606F4
:1014700093CF89E792E00E94D80BCE010E948607A5
:101480008BCF82E892E00E94D80BCE010E94E90146
:1014900083CF8CE892E00E94D80BCE010E94120606
:1014A0007BCF84E992E00E94D80BCE010E94980283
:1014B00073CF8EE992E00E94D80BCE010E941502F4
:1014C0006BCF89EA92E00E94D80BCE010E941B07E5
:1014D00063CF8DEA92E03AC086EB92E00E94D80B8F
:1014E000CE010E94BF0458CF8DEB92E00E94D80B32
:1014F000CE010E94D50850CF84EC92E00E94D80B18
:10150000CE010E94450748CF81E692E00E94D80BA9
:10151000CE010E94150540CF8AEC92E00E94D80BC4
:10152000CE010E94130338CF84ED92E00E94D80BC5
:10153000CE010E94C50230CF8BED92E00E94D80B05
:10154000CE010E945C0728CF80EB92E00E94D80B6E
:1015500023CF81EE92E00E94D80BCE010E94280496
:101560001BCF86EE92E00E94D80BCE010E94E203D0
:1015700013CF8BEE92E00E94D80BCE010E9479032C
:101580000BCF83EF92E00E94D80BCE010E942F096F
:10159000CE010E94B80500CF89E293E00E94D80BEB
:1015A000CE010E945E05F8CE8CEF92E00E94D80B2F
:1015B000CE010E940A04F0CE83E093E00E94D80B93
:1015C000CE010E94AD03E8CE8BE093E00E94D80BE1
:1015D000CE010E943D03E0CE85E193E00E94D80B4E
:1015E000CE010E942903D8CE8AE193E00E94D80B55
:1015F000CE010E94E505D0CE86E293E00E94D80B92
:10160000CE010E948B05C8CE8FE293E00E94D80BDA
:10161000CE010E949A04C0CE83E393E00E94D80BCF
:10162000CE010E946104B8CE8DE393E00E94D80BF6
:10163000CE010E94AC01B0CE87E493E002C08DE4FD
:1016400093E00E94D80B8F819885019798878F83AC
:10165000A3CE82E593E00E94D80BCE010E940F0931
:101660009BCE88E593E00E94D80BCE010E942D0905
:1016700093CE8EE593E00E94D80B81E090E00E942B
:10168000CC0D23E0880F991F2A95E1F70E948D0C5D
:10169000FC01178216821582148213821282118233
:1016A0001082089523E0880F991F2A95E1F70C9482
:1016B0008D0CFC01808191810895FC0182819381D0
:1016C0000895FC01848195810895FC0186819781AC
:1016D0000895FC01718360830895FC017383628324
:1016E0000895FC01758364830895FC017783668304
:1016F0000895FB0101900020E9F73197AF01461BE7
:10170000570B0E94BE0D21E0892B09F020E0822FAB
:1017100008956AEB73E082E993E00E94B50D21E041
:10172000892B09F020E0822F089580916903909120
:101730006803899FC001112428E7289FA001299FE1
:10174000500D112460E070E08AE693E00E94AE0D37
:1017500010926803109269030895CF93C82F0E94D6
:101760000E0CCA3069F480916803823020F48F5FD8
:101770008093680302C0109268031092690314C03A
:10178000C43511F40E94950B80916903E0916803C0
:1017900098E2E99FF0011124E659FC4FE80FF11D92
:1017A000C0838F5F80936903CF9108950C94AD0B34
:1017B000CF93DF93EC018881882331F02097D9F310
:1017C00021960E94AD0BF7CFDF91CF9108958AE06B
:1017D0000C94AD0B0C94070C8F708A3010F0895C60
:1017E00001C0805D0C94AD0BCF93C82F82958F7094
:1017F0000E94EC0B8C2FCF910C94EC0BCF93C82F45
:10180000892F0E94F40B8C2FCF910C94F40B8091B4
:10181000C00087FFFCCF8091C60008959091C00062
:1018200095FFFCCF8093C60008958091E20381115B
:101830000FC087E690E09093C5008093C40088E1D4
:101840008093C1008EE08093C20081E08093E20328
:10185000089580530895082E000C990BC0970895A1
:10186000805D0895805D08950F931F93CF93DF935C
:10187000CDB7DEB7CC54D1090FB6F894DEBF0FBE9A
:10188000CDBF0E94150C8CE4E6E0F1E0DE0111967C
:1018900001900D928A95E1F784E690E00E94330969
:1018A0008C01BE016F5F7F4F0E949009C8010E94AA
:1018B000CB0980E090E0C45BDF4F0FB6F894DEBF49
:1018C0000FBECDBFDF91CF911F910F910895991B4E
:1018D00079E004C0991F961708F0961B881F7A9527
:1018E000C9F780950895AA1BBB1B51E107C0AA1F29
:1018F000BB1FA617B70710F0A61BB70B881F991FB1
:101900005A95A9F780959095BC01CD010895EE0FE9
:10191000FF1F0590F491E02D09940F931F93CF932F
:10192000DF938230910510F482E090E0E091E503CE
:10193000F091E60320E030E0A0E0B0E0309719F14C
:10194000408151810281138148175907C8F08417DB
:10195000950769F4109731F012960C93129713962D
:101960001C9327C00093E5031093E60322C02115C2
:10197000310519F04217530718F49A01BD01EF0120
:10198000DF01F801DBCF21153105F9F0281B390BF8
:101990002430310580F48A819B816115710521F025
:1019A000FB019383828304C09093E6038093E50355
:1019B000FE01329644C0FE01E20FF31F8193919322
:1019C00022503109398328833AC02091E3033091B2
:1019D000E403232B41F42091020130910301309361
:1019E000E4032093E30320910001309101012115CC
:1019F000310541F42DB73EB74091040150910501E6
:101A0000241B350BE091E303F091E403E217F307A5
:101A1000A0F42E1B3F0B2817390778F0AC014E5F5E
:101A20005F4F2417350748F04E0F5F1F5093E403B4
:101A30004093E3038193919302C0E0E0F0E0CF0193
:101A4000DF91CF911F910F910895CF93DF9300976E
:101A500009F481C0FC01329713821282A091E50340
:101A6000B091E603109781F420813181820F931F9A
:101A70002091E3033091E4032817390751F5F093DF
:101A8000E403E093E30367C0ED0120E030E0CE170C
:101A9000DF0740F44A815B819E0141155105F1F059
:101AA000EA01F5CFD383C28340815181840F951F12
:101AB000C817D90759F488819981840F951F029618
:101AC000918380838A819B81938382832115310551
:101AD00029F4F093E603E093E5033DC0E901FB83BD
:101AE000EA8349915991C40FD51FEC17FD0761F4A2
:101AF00080819181840F951F0296E90199838883E3
:101B0000828193819B838A83E0E0F0E012968D913D
:101B10009C911397009719F0FD01DC01F7CF8D918F
:101B20009C9111979D012E5F3F4F820F931F209133
:101B3000E3033091E4032817390769F4309729F457
:101B40001092E6031092E50302C013821282B09352
:101B5000E403A093E303DF91CF910895DC0101C07A
:101B60006D9341505040E0F70895FB01DC018D91E9
:101B7000019080190110D9F3990B0895FB01DC0144
:101B80004150504030F08D910190801919F400209F
:0C1B9000B9F7881B990B0895F894FFCF5B
:101B9C000000E7032000BB01010001000000000071
:101BAC0096015400DA0196016500DA019601730082
:101BBC00DA0196017400DA0196012000DA0196012F
:101BCC006600DA0196013000DA01DC019601300082
:101BDC00DA01DC0196010000D901DC019F019C01B6
:101BEC00FFFF537461636B206F766572666C6F7761
:101BFC00733A207370004572726F723A20656C658F
:101C0C006D656E7420686173207468652076616CF4
:101C1C007565206F757473696465207365742072C3
:101C2C00616E67650A006469766973696F6E20621C
:101C3C0079207A65726F006D6F64756C75732062B4
:101C4C0079207A65726F004E6F7420656E6F7567C0
:101C5C0068206D656D6F727920746F2072756E20BF
:101C6C00612070726F6365737320737000457863C5
:101C7C0065656473206D6178696D756D206E756D29
:101C8C00626572206F662070726F63657373657323
:101C9C0000696E646578206578636565647320619E
:101CAC00727261792064696D656E73696F6E00661E
:101CBC00616C73650074727565004D656D6F72793A
:101CCC003A2000454E4450524F430050524F43452A
:101CDC00445552450A00494E4445580A00434F4268
:101CEC004547494E0A00504152414D43414C4C0A24
:101CFC0000454E4450524F430A00454C53450A0090
:101D0C0050524F434152470A0050524F4345535390
:101D1C000A005641524941424C450A00415353492D
:101D2C00474E0A00434F4E5354414E540A00434F02
:101D3C004E5354525543540A00444F0A00454E44E6
:101D4C005748454E0A00455155414C0A00464945F5
:101D5C004C440A00474F544F0A0056414C535041D3
:101D6C0043450A0056414C55450A00574149540A0F
:101D7C00004144440A00414E440A00444956494437
:101D8C00450A00454E44434F44450A004D494E55C3
:101D9C00530A004D4F44554C4F0A004D554C544975
:101DAC00504C590A004E4F540A004E4F544752455E
:101DBC00415445520A004E4F544C4553530A004F60
:101DCC00520A0053554254524143540A00494E534F
:101DDC0054414E43450A00505554490A0048657217
:101DEC006500505554420A005055544E0A00446543
:081DFC006661756C740A0000B9
:00000001FF
