:100000000C9481000C949E000C949E000C949E0015
:100010000C949E000C949E000C949E000C949E00E8
:100020000C949E000C949E000C949E000C949E00D8
:100030000C949E000C949E000C949E000C949E00C8
:100040000C949E000C949E000C949E000C949E00B8
:100050000C949E000C949E000C949E000C949E00A8
:100060000C949E000C949E00BA0A370AC20A5A0ADF
:100070004D0B230A620A6A0A4D0BCA0A720A3F0A2A
:10008000D20A4D0B4D0B0B0A7A0A7D0A4D0B850ADD
:100090004D0B8D0AD90A4D0B1B0A250B4D0BDD0AA2
:1000A0004D0BE50AED0AF50A4D0BFD0A950A050B05
:1000B0000D0B150B4D0B2B0A4D0B420A330A130A7D
:1000C0004A0A1D0B4D0B9D0AA50A520AAD0AB50A34
:1000D0004D0B4D0B4D0B4D0B4D0B4D0B4D0B4D0B60
:1000E0004D0B4D0B4D0B4D0B4D0B4D0B4D0B4D0B50
:1000F0004D0B4D0B4D0B4D0B4D0B2D0B350B3D0B88
:10010000450B11241FBECFEFD8E0DEBFCDBF13E0FB
:10011000A0E0B1E0E8EFFBE102C005900D92AE3740
:10012000B107D9F723E0AEE7B3E001C01D92AD3FC0
:10013000B207E1F70E94620C0C94FA0D0C940000D7
:100140000E94060C0E94150C81E090E00E94FA0DBE
:10015000CF93DF93EC018F856D817E812D859E8508
:10016000E22FF92FE80FF11DE80FF11D0190F0814A
:10017000E02D808191810E947D0B8F856F81788534
:100180002D859E85E22FF92FE80FF11DE80FF11D57
:100190000190F081E02D808191810E94810B8F85FB
:1001A0006B857C852D859E85E22FF92FE80FF11D4B
:1001B000E80FF11D0190F081E02D808191810E9476
:1001C000850B8F8569857A852D859E85E22FF92F90
:1001D000E80FF11DE80FF11D0190F081E02D808105
:1001E0009181DF91CF910C94890BCF93DF93EC0138
:1001F0008F852D859E85E22FF92FE80FF11DE80FE1
:10020000F11D0190F081E02D808191810E946D0BA4
:100210009E838D838F852D859E85E22FF92FE80F94
:10022000F11DE80FF11D0190F081E02D8081918199
:100230000E94710B98878F838F852D859E85E22F75
:10024000F92FE80FF11DE80FF11D0190F081E02D6D
:10025000808191810E94750B9C878B878F852D856E
:100260009E85E22FF92FE80FF11DE80FF11D019097
:10027000F081E02D808191810E94790B9A87898796
:10028000DF91CF910895FC0123893489A185B2853E
:10029000AA0FBB1FA20FB31F6C9112965C9112970D
:1002A00014964C91149716968C91858B8581968126
:1002B000DC011296AA0FBB1FA20FB31F0197861B6A
:1002C00091098D939C9387819085850F911D9087CF
:1002D0008783840F911D238534852817390728F4D7
:1002E000BF0182E591E00E94A0008185928504967D
:1002F000928781870895CF93DF93DC0153968D9188
:100300009C9154971596ED91FC9116973496EE0FAB
:10031000FF1FE80FF91F808191810097D1F01A9695
:100320009C938E931997EF012297888199811C964F
:100330009C938E931B9722978881998118969C9302
:100340008E93179736978081918116969C938E9302
:100350001597DF91CF910895DC0153966D917C91B3
:10036000549715962C9115971996ED91FC911A9723
:10037000EE0FFF1FE60FF71F8081082E000C990B70
:10038000022E000C330B1816190644F4220F331FEB
:10039000FB01E20FF31F20810197F2CF17964D91D9
:1003A0005C9118974F5F5F4F18965C934E93179729
:1003B000440F551FFB01E40FF51F3183208319966D
:1003C0008D919C911A9701961A969C938E931997EA
:1003D0000895CF93DF93DC0153968D919C915497B0
:1003E0001796ED91FC911897EE0FFF1FE80FF91F7C
:1003F0001996CD91DC911A97CC0FDD1FC80FD91F2C
:10040000288180819181820F911D27FD9A9591838A
:10041000808319968D919C911A9701961A969C93B8
:100420008E931997DF91CF9108959F92AF92BF92CB
:10043000CF92DF92EF92FF920F931F93CF93DF93B0
:10044000EC01E985FA85EE0FFF1F8B899C89E80F87
:10045000F91F908088E090E00E94BB0C5C017C0159
:100460000896F5011192E817F907E1F700E010E0AE
:10047000CC24C394D12C2B893C898F819885091574
:1004800024F5FC01E01BF10BEE0FFF1FE20FF31F41
:10049000808187FD13C0982F9770F501E90FF11D3A
:1004A000859585958595960102C0220F331F8A9503
:1004B000E2F7C9019081892B808304C086E691E030
:1004C0000E94060C0F5F1F4FD6CF01968919910924
:1004D00097FC939598878F8380E090E0F701419196
:1004E0007F01EF81F885E80FF91FEE0FFF1FE20F84
:1004F000F31F042E000C550B518340830196883066
:10050000910561F78F819885079698878F838985F4
:100510009A8502969A878987DF91CF911F910F91D3
:10052000FF90EF90DF90CF90BF90AF909F90089595
:10053000CF93DF93DC015396ED91FC91549719967C
:10054000CD91DC911A97CC0FDD1FCE0FDF1F888174
:10055000998117962D913C9118972F5F3F4F1896D0
:100560003C932E931797220F331FE20FF31F9183B3
:10057000808319968D919C911A9701961A969C9357
:100580008E931997DF91CF9108950F931F93CF9377
:10059000DF93DC0153964D915C9154971996ED9140
:1005A000FC911A97EE0FFF1FE40FF51F80819181D8
:1005B0001796ED91FC911897EE0FFF1FE40FF51FB2
:1005C000C081D181CC0FDD1FC40FD51F60E070E06A
:1005D00017962D913C9118976817790774F4099133
:1005E0001991FB01E20FF31FEE0FFF1FE40FF51F40
:1005F000118300836F5F7F4FEBCF21503109280FAC
:10060000391F18963C932E93179719968D919C91AC
:100610001A9701961A969C938E931997DF91CF9112
:100620001F910F910895FC01818592859C01220FF5
:10063000331FA389B489A20FB31F478150852D9121
:100640003C91240F351F308727830196928781873D
:100650000895DC011796ED91FC911897EE0FFF1F9E
:1006600053968D919C915497E80FF91F8081918149
:1006700080959095918380830895CF93DF93DC01DB
:1006800053962D913C9154971796ED91FC911897A4
:10069000CF01019718969C938E931797EE0FFF1F2B
:1006A000E901CE0FDF1F888111968C931197329745
:1006B000E20FF31F60817181869FA001879F500D1B
:1006C00011245183408319968D919C911A97AC0106
:1006D0004F5F5F4F1A965C934E931997880F991F3F
:1006E000F901E80FF91F808155968C93DF91CF9126
:1006F0000895CF93DF93FC0123893489A781B085C6
:10070000CD01019790878783AA0FBB1FE901CA0F0C
:10071000DB1F68816183611105C0BF0186E991E03B
:100720000E94A0001297A20FB31F8C9180830E9499
:10073000950C90E08D939C9381859285AC014F5FE1
:100740005F4F52874187880F991FD901A80FB91FA2
:100750008C91858BDF91CF910895CF93DF93FC012E
:1007600023893489A781B085CD010197908787833C
:10077000AA0FBB1FE901CA0FDB1F688161836111EA
:1007800005C0BF0187EA91E00E94A0001297A20F66
:10079000B31F8C9180830E94950C892F90E08D93DC
:1007A0009C9381859285AC014F5F5F4F5287418753
:1007B000880F991FD901A80FB91F8C91858BDF91E4
:1007C000CF910895CF93DF93DC015396ED91FC9187
:1007D000549717962D913C911897C9010197189637
:1007E0009C938E931797220F331FEF01C20FD31FD5
:1007F0004881598111964C9322503109E20FF31F21
:100800005527808191814823592351834083DF916B
:10081000CF910895DC011796ED91FC911897EE0F9A
:10082000FF1F53968D919C915497E80FF91F80817B
:1008300091819195819591099183808319968D91EC
:100840009C911A9701961A969C938E9319970895E6
:10085000CF93DF93DC0153962D913C9154971796DB
:10086000ED91FC911897CF01019718969C938E9368
:100870001797EE0FFF1FE901CE0FDF1F488111967A
:100880004C9311973297E20FF31F80819181840F6F
:10089000911D9183808319968D919C911A97AC013B
:1008A0004F5F5F4F1A965C934E931997880F991F6D
:1008B000F901E80FF91F808155968C93DF91CF9154
:1008C0000895CF93DF93DC0153962D913C9154977B
:1008D0001796ED91FC911897CF01019718969C936C
:1008E0008E931797EE0FFF1FE901CE0FDF1F488190
:1008F00011964C9311973297E20FF31F80819181EB
:10090000841B91099183808319968D919C911A97EC
:10091000AC014F5F5F4F1A965C934E931997880F07
:10092000991FF901E80FF91F808155968C93DF918B
:10093000CF910895CF93DF93DC015396ED91FC9115
:10094000549717962D913C911897C90101971896C5
:100950009C938E931797220F331FEF01C20FD31F63
:10096000488111964C9322503109E20FF31F808188
:100970009181842B91838083DF91CF910895CF92D1
:10098000DF92EF92FF920F931F93CF93DF93EC01CF
:10099000EB89FC8989859A85DC01AA0FBB1FAE0F04
:1009A000BF1F4D915C912F8138852F5F3F4F241BD6
:1009B000350BD901A41BB50BB887AF83AA0FBB1F9A
:1009C000AE0FBF1FBD01220F331F6F01C20ED31E1A
:1009D00020E030E02417350774F4FB01E190F1903A
:1009E000BF01F601019111916F01E016F10629F4A2
:1009F0002F5F3F4FEFCF41E001C040E09C012F5FF0
:100A00003F4F3A872987442329F081E090E08D9376
:100A10009C9302C01D921C92DF91CF911F910F9168
:100A2000FF90EF90DF90CF900895CF93DF93DC019C
:100A300053968D919C9154971996CD91DC911A976C
:100A4000CC0FDD1FC80FD91F488159811796ED9132
:100A5000FC911897E41BF50B1896FC93EE931797EF
:100A6000EE0FFF1FE80FF91F1182108220E030E027
:100A700024173507BCF4C191D19160817181C617EB
:100A8000D70769F01796ED91FC911897EE0FFF1FAD
:100A9000E80FF91F81E090E09183808303C02F5F0E
:100AA0003F4FE6CF19968D919C911A9701961A9611
:100AB0009C938E931997DF91CF910895CF93DF93F5
:100AC000DC015396ED91FC91549717962D913C9132
:100AD0001897C901019718969C938E931797220F28
:100AE000331FEF01C20FD31F4881598111964C93D8
:100AF00022503109E20FF31F552781E090E0208159
:100B000031812417350710F080E090E091838083D5
:100B1000DF91CF910895CF93DF93DC015396ED9150
:100B2000FC91549717962D913C911897C901019704
:100B300018969C938E931797220F331FEF01C20FC5
:100B4000D31F4881598111964C9322503109E20FED
:100B5000F31F552781E090E020813181241735076C
:100B600010F480E090E091838083DF91CF9108952D
:100B7000CF93DF93DC015396ED91FC915497179638
:100B80002D913C911897C901019718969C938E93CB
:100B90001797220F331FEF01C20FD31F48815981CE
:100BA00011964C9322503109E20FF31F552781E033
:100BB00090E0208131814217530710F080E090E0EF
:100BC00091838083DF91CF910895CF93DF93DC01F0
:100BD0005396ED91FC91549717962D913C9118974F
:100BE000C901019718969C938E931797220F331F74
:100BF000EF01C20FD31F4881598111964C932250A7
:100C00003109E20FF31F552781E090E02081318107
:100C10004217530710F480E090E091838083DF91C6
:100C2000CF9108950F931F93CF93DF93DC015396D9
:100C30004D915C9154971996ED91FC911A97EE0F96
:100C4000FF1FE40FF51F6081062E000C770B17962F
:100C50002D913C911897261B370BE9012197189687
:100C6000DC93CE931797220F331FFA01E20FF31F85
:100C70008081CE5F880F990BFA01E80FF91F9195DB
:100C8000819591090C2F000F110B20E030E0261701
:100C900037076CF4AF01480F591F400F511FEA018D
:100CA00048815981419351932F5F3F4FF0CF19965F
:100CB0008D919C911A9701961A969C938E931997F1
:100CC000DF91CF911F910F910895CF93DF93FC0196
:100CD00083899489A185B285AA0FBB1FA80FB91F6C
:100CE0002C9145815681C781D0852196CC0FDD1F7F
:100CF000C80FD91F5983488343855485C781D08540
:100D00002396CC0FDD1FC80FD91F59834883A781B5
:100D1000B0851496AA0FBB1FA80FB91F81859285B5
:100D200001968D939C938781908596838583049605
:100D300090878783818592850197820F911D27FD7A
:100D40009A9592878187DF91CF910895CF93DF9312
:100D5000EC01EB89FC8949855A85CA0101969A877D
:100D60008987440F551FDF01A40FB51F8D919C91FA
:100D70002F8138852F5F3F4F38872F83220F331FF6
:100D8000E20FF31F91838083DF91CF91089508953F
:100D9000CF93DF93FC0183899489C781D085CC0FE1
:100DA000DD1FC80FD91FA185B285AA0FBB1FA80FD1
:100DB000B91F2C91A881B981A20FB11D27FDBA9549
:100DC0001196AA0FBB1FA80FB91F2D913C91119727
:100DD00012974D915C915983488345815681A78133
:100DE000B0851196AA0FBB1FA80FB91F4D935C9336
:100DF00043855485A781B0851396AA0FBB1FA80F02
:100E0000B91F4D935C93A781B0851496AA0FBB1FA1
:100E1000A80FB91F8185928501968D939C93878138
:100E20009085968385830496908787833287218770
:100E3000DF91CF910895CF93DF93FC01A389B4890B
:100E400021853285E901CC0FDD1FCA0FDB1F6881C8
:100E500087819085AC01440F551FA40FB51F4D919C
:100E60005C914130510519F42F5F3F4F06C021506E
:100E70003109260F311D67FD3A9532872187019789
:100E800090878783DF91CF910895FC01218532857A
:100E9000C901880F991FA389B489A80FB91F8C9124
:100EA00021503109280F311D87FD3A95328721875E
:100EB00008950C9445070895CF93DF93EC0189853D
:100EC0009A859C01220F331FEB89FC89E20FF31FE7
:100ED00020810197820F911D27FD9A959A87898716
:100EE000CE010E94A8002F85422F50E0888990E013
:100EF00001974817590714F01F8602C02F5F2F87EC
:100F0000CE01DF91CF910C94F5000895FC01A389E7
:100F1000B489818592859C01220F331FA20FB31FD4
:100F20004D915C91119712962C91258B27813085DC
:100F3000240F351F438554854217530728F4BF01FA
:100F400087EB91E00E94A000029692878187089526
:100F5000FC018089823000F18785208990E0422F52
:100F600050E0415051098417950784F4A585B68552
:100F7000880F991FA80FB91F12968D919C911397F6
:100F80008D939C9387858F5F8787E6CF2150208B39
:100F90001786CF010C94F500818592859C01220F64
:100FA000331FA389B489A20FB31F4C91218930E06C
:100FB00030872783228930E0348723870197840F85
:100FC000911D47FD9A959287818708958F929F92F0
:100FD000BF92CF92DF92EF92FF920F931F93CF9326
:100FE000DF93EC018B899C89E985FA85EE0FFF1F61
:100FF000E80FF91F208182818D8B288B2B3028F000
:10100000BE018DED91E00E94A0004F815885498B73
:101010008B859C858A8B841B950BC22E220FDD0845
:10102000B6010E94A10CB12CE62E660FFF080B2D15
:1010300010E00C151D050CF060C08F8198858E0D99
:101040009F1D9C878B87000F111FED85FE85E00F8C
:10105000F11F808091808AE090E00E94550BF4019E
:10106000918380836D817E81ED85FE85E00FF11F88
:101070000190F081E02D808191810E947D0B6F8134
:101080007885ED85FE85E00FF11F0190F081E02D60
:10109000808191810E94810B6B857C85ED85FE8529
:1010A000E00FF11F0190F081E02D808191810E947D
:1010B000850B69857A85FB01E00FF11F3396EE0FF2
:1010C000FF1F8B899C89E80FF91F6150710980818E
:1010D0009181680F791F8D859E85FC01E00FF11FBE
:1010E0000190F081E02D808191810E94890B8B8598
:1010F0009C8598878F83B3949ACF1F86CE01DF910A
:10110000CF911F910F91FF90EF90DF90CF90BF9004
:101110009F908F900C94F5001F93CF93DF93FC0169
:1011200063897489A185B285AA0FBB1FA60FB71F5B
:10113000CC9112961C9112971496DC9114971696E6
:101140008C91858B47815085CA01880F991FDB01DF
:10115000A80FB91F2D913C914150510950874783E9
:101160002C1710F0121728F4BF0181E092E00E94C2
:10117000A0000297DB01A80FB91F33272C1B3109F0
:10118000D29FC001D39F900D11242D913C911197B6
:10119000820F931F8D939C938185928504969287ED
:1011A0008187DF91CF911F910895CF93DF93DC0169
:1011B00053968D919C9154971796ED91FC911897A9
:1011C000EE0FFF1FE80FF91F1996CD91DC911A97CA
:1011D000CC0FDD1FC80FD91F288180819181820F1C
:1011E000911D9183808319968D919C911A970196F8
:1011F0001A969C938E931997DF91CF910895CF9370
:10120000DF93EC018FE192E00E94060CEF81F885FC
:10121000EE0FFF1F8B899C89E80FF91F80810E94C8
:101220005E0C0E94040C8F819885019798878F83AC
:10123000DF91CF910895CF93DF93EC018AE292E0A2
:101240000E94060C0E94150CEF81F885EE0FFF1F1F
:101250008B899C89E80FF91F80810E945E0C0E9497
:10126000040C8F819885019798878F83DF91CF91A8
:101270000895CF93DF93EC01EF81F885EE0FFF1F08
:101280008B899C89E80FF91F80819181892B19F046
:101290008DE392E002C087E392E00E94060C8F810A
:1012A0009885019798878F83DF91CF9108950C944B
:1012B000150C80E090E00E94FA0DEF92FF920F93E0
:1012C0001F93CF93DF9326E1AC01249FC001259F9C
:1012D000900D11240E94BB0CEC01198218821A8611
:1012E0001986198A1A8A1F8681E0888B8AE090E025
:1012F0000E94660B9E878D8700E010E0ED84FE84DF
:10130000E00EF11E8AE090E00E94550BF7019183F8
:1013100080830E5F1F4F0431110581F784E690E052
:101320000E94BB0C9B838A831C8280E49CE90E9400
:10133000BB0C9C8B8B8BFC019C01205C3346119277
:101340001192E217F307D9F720E034E03C872B87AE
:101350001E821D8224E030E038872F83FC01118635
:1013600010861D8ACE01DF91CF911F910F91FF90C2
:10137000EF900895CF93DF93EC018B859C859A873E
:101380008987FB0120E030E0819191918F3F4FEF01
:10139000940759F0AB89BC89A20FB31F8D939C931E
:1013A0002E5F3F4F2436310579F7DF91CF910895B5
:1013B000EC0189859A850E942C0C0E94150CEB8902
:1013C000FC8989859A859C012F5F3F4F3A87298741
:1013D0009458880F991FE80FF91F00811181005957
:1013E000114082E492E00E94060C0E94150CC80194
:1013F0000E942C0C0E94150C89859A850E942C0C49
:101400000E94150C0D34110508F047C1F801EC5C81
:10141000FF4F0C94B50C89E492E00E94060CCE01BB
:101420000E947B01C6CF81E592E00E94060CCE01AE
:101430000E944301BECF8CE592E00E94060CCE01D3
:101440000E948C08B6CF83E692E00E94060CCE0183
:101450000E94E607AECF8CE692E00E94060CCE0119
:101460000E94C806A6CFCE010E946506A2CF87E7DC
:1014700092E00E94060CCE010E94A8079ACF80E855
:1014800092E04DC086E892E00E94060CCE010E94D8
:10149000A6068FCF8FE892E00E94060CCE010E9434
:1014A000860787CF88E992E00E94060CCE010E9451
:1014B000E9017FCF82EA92E00E94060CCE010E94F1
:1014C000120677CF8AEA92E00E94060CCE010E94B3
:1014D00098026FCF84EB92E00E94060CCE010E942E
:1014E000150267CF8FEB92E00E94060CCE010E949E
:1014F0001B075FCF83EC92E03AC08CEC92E00E9435
:10150000060CCE010E94BF0454CF83ED92E00E94EE
:10151000060CCE010E94D5084CCF8AED92E00E94C5
:10152000060CCE010E94450744CF87E792E00E9457
:10153000060CCE010E9415053CCF80EE92E00E9481
:10154000060CCE010E94130334CF8AEE92E00E9473
:10155000060CCE010E94C5022CCF81EF92E00E94C2
:10156000060CCE010E945C0724CF86EC92E00E941C
:10157000060C1FCF87EF92E00E94060CCE010E945E
:10158000280417CF8CEF92E00E94060CCE010E9437
:10159000E2030FCF81E093E00E94060CCE010E948F
:1015A000790307CF89E093E00E94060CCE010E94E8
:1015B0005909CE010E94B805FCCE8FE393E00E944A
:1015C000060CCE010E945E05F4CE82E193E00E94FB
:1015D000060CCE010E940A04ECCE89E193E00E9441
:1015E000060CCE010E94AD03E4CE81E293E00E949E
:1015F000060CCE010E943D03DCCE8BE293E00E94FC
:10160000060CCE010E942903D4CE80E393E00E9411
:10161000060CCE010E94E505CCCE8CE393E00E943F
:10162000060CCE010E948B05C4CE85E493E00E9497
:10163000060CCE010E949A04BCCE89E493E00E947D
:10164000060CCE010E946104B4CE83E593E00E94B3
:10165000060CCE010E94AC01ACCE8DE593E00E9459
:10166000060CCE010E94FF08A4CE83E693E00E9400
:10167000060CCE010E941B099CCE88E693E00E94D6
:10168000060CCE010E94390994CE8EE693E00E94AA
:10169000060CCE010E9457098CCE84E793E00E948D
:1016A000060C81E090E00E94FA0D23E0880F991F5C
:1016B0002A95E1F70E94BB0CFC0117821682158265
:1016C00014821382128211821082089523E0880FFF
:1016D000991F2A95E1F70C94BB0CFC018081918144
:1016E0000895FC01828193810895FC018481958194
:1016F0000895FC01868197810895FC0171836083C0
:101700000895FC01738362830895FC0175836483EB
:101710000895FC017783668308950F931F93CF93F9
:10172000DF93EC018C01005B1F4F899199918F3FF2
:101730002FEF920739F00E942C0C0E94150CC01755
:10174000D10799F7DF91CF911F910F910895FB0178
:1017500001900020E9F73197AF01461B570B0E941B
:10176000EC0D21E0892B09F020E0822F089560ED37
:1017700073E088EA93E00E94E30D21E0892B09F0F1
:1017800020E0822F089580917F0390917E03899FAE
:10179000C001112428E7289FA001299F500D112482
:1017A00060E070E080E893E00E94DC0D10927E0320
:1017B00010927F030895CF93C82F0E943C0CCA302B
:1017C00069F480917E03823020F48F5F80937E03E2
:1017D00002C010927E0310927F0314C0C43511F42E
:1017E0000E94C30B80917F03E0917E0398E2E99F02
:1017F000F0011124E058FC4FE80FF11DC0838F5F0A
:1018000080937F03CF9108950C94DB0BCF93DF93EC
:10181000EC018881882331F02097D9F321960E942A
:10182000DB0BF7CFDF91CF9108958AE00C94DB0BAF
:101830000C94350C8F708A3010F0895C01C0805D8B
:101840000C94DB0BCF93C82F82958F700E941A0CDB
:101850008C2FCF910C941A0CCF93C82F892F0E94F4
:10186000220C8C2FCF910C94220C8091C00087FF0A
:10187000FCCF8091C60008959091C00095FFFCCFE9
:101880008093C60008958091F80381110FC087E608
:1018900090E09093C5008093C40088E18093C100DC
:1018A0008EE08093C20081E08093F8030895805316
:1018B0000895082E000C990BC0970895805D089537
:1018C000805D08950F931F93CF93DF93CDB7DEB75D
:1018D000CC54D1090FB6F894DEBF0FBECDBF0E9425
:1018E000430C8CE4E6E0F1E0DE01119601900D92EC
:1018F0008A95E1F784E690E00E945D098C01BE01C3
:101900006F5F7F4F0E94BA09C8010E94D80980E02A
:1019100090E0C45BDF4F0FB6F894DEBF0FBECDBFC3
:10192000DF91CF911F910F910895991B79E004C029
:10193000991F961708F0961B881F7A95C9F780950E
:101940000895AA1BBB1B51E107C0AA1FBB1FA61706
:10195000B70710F0A61BB70B881F991F5A95A9F758
:1019600080959095BC01CD010895EE0FFF1F059065
:10197000F491E02D09940F931F93CF93DF9382305E
:10198000910510F482E090E0E091FB03F091FC03FC
:1019900020E030E0A0E0B0E0309719F140815181C3
:1019A0000281138148175907C8F08417950769F415
:1019B000109731F012960C93129713961C9327C030
:1019C0000093FB031093FC0322C02115310519F08D
:1019D0004217530718F49A01BD01EF01DF01F80126
:1019E000DBCF21153105F9F0281B390B24303105E7
:1019F00080F48A819B816115710521F0FB0193833D
:101A0000828304C09093FC038093FB03FE01329613
:101A100044C0FE01E20FF31F8193919322503109DC
:101A2000398328833AC02091F9033091FA03232B9C
:101A300041F420910201309103013093FA03209385
:101A4000F90320910001309101012115310541F484
:101A50002DB73EB74091040150910501241B350B71
:101A6000E091F903F091FA03E217F307A0F42E1BBB
:101A70003F0B2817390778F0AC014E5F5F4F2417F2
:101A8000350748F04E0F5F1F5093FA034093F90358
:101A90008193919302C0E0E0F0E0CF01DF91CF911C
:101AA0001F910F910895CF93DF93009709F481C0A0
:101AB000FC01329713821282A091FB03B091FC03C8
:101AC000109781F420813181820F931F2091F903B7
:101AD0003091FA032817390751F5F093FA03E09390
:101AE000F90367C0ED0120E030E0CE17DF0740F4D6
:101AF0004A815B819E0141155105F1F0EA01F5CF64
:101B0000D383C28340815181840F951FC817D907A1
:101B100059F488819981840F951F0296918380835F
:101B20008A819B81938382832115310529F4F09367
:101B3000FC03E093FB033DC0E901FB83EA83499189
:101B40005991C40FD51FEC17FD0761F48081918175
:101B5000840F951F0296E90199838883828193817E
:101B60009B838A83E0E0F0E012968D919C9113971D
:101B7000009719F0FD01DC01F7CF8D919C91119731
:101B80009D012E5F3F4F820F931F2091F9033091EB
:101B9000FA032817390769F4309729F41092FC03E7
:101BA0001092FB0302C013821282B093FA03A09337
:101BB000F903DF91CF910895DC0101C06D9341508D
:101BC0005040E0F70895FB01DC018D9101908019F0
:101BD0000110D9F3990B0895FB01DC0141505040ED
:101BE00030F08D910190801919F40020B9F7881B0D
:081BF000990B0895F894FFCF52
:101BF8000000FD032000BB010100010000000000FF
:101C080096015400DA0196016500DA019601730025
:101C1800DA0196017400DA0196012000DA019601D2
:101C28006600DA0196013000DA01DC019601300025
:101C3800DA01DC0196010000D901DC019F019C0159
:101C4800FFFF537461636B206F766572666C6F7704
:101C5800733A207370004572726F723A20656C6532
:101C68006D656E7420686173207468652076616C98
:101C78007565206F75747369646520736574207267
:101C8800616E67650A006469766973696F6E2062C0
:101C980079207A65726F006D6F64756C7573206258
:101CA80079207A65726F004E6F7420656E6F756764
:101CB80068206D656D6F727920746F2072756E2063
:101CC800612070726F636573732073700045786369
:101CD80065656473206D6178696D756D206E756DCD
:101CE800626572206F662070726F636573736573C7
:101CF80000696E6465782065786365656473206142
:101D0800727261792064696D656E73696F6E0050D7
:101D18007574496E746567657200507574436861BF
:101D28007261637465720066616C736500747275C4
:101D380065004F70436F646500454E4450524F43F1
:101D48000050524F4345445552450A00494E4445B8
:101D5800580A00434F424547494E0A0050415241F4
:101D68004D43414C4C0A00454E4450524F430A00E3
:101D7800454C53450A0050524F434152470A0050C0
:101D8800524F434553530A005641524941424C452C
:101D98000A0041535349474E0A00434F4E5354419A
:101DA8004E540A00434F4E5354525543540A00446C
:101DB8004F0A00454E445748454E0A004551554183
:101DC8004C0A004649454C440A00474F544F0A0004
:101DD80056414C53504143450A0056414C55450A1B
:101DE80000574149540A004144440A00414E440AFC
:101DF800004449564944450A00454E44434F44452A
:101E08000A004D494E55530A004D4F44554C4F0A50
:101E1800004D554C5449504C590A004E4F540A0035
:101E28004E4F54475245415445520A004E4F544C68
:101E38004553530A004F520A0053554254524143E6
:101E4800540A00494E5354414E43450A00505554D4
:101E5800490A004865726500505554420A005055B9
:0E1E6800544E0A0044656661756C740A0000F1
:00000001FF
