:100000000C9434000C9451000C9451000C94510049
:100010000C9451000C9451000C9451000C9451001C
:100020000C9451000C9451000C9451000C9451000C
:100030000C9451000C9451000C9451000C945100FC
:100040000C9451000C9451000C9451000C945100EC
:100050000C9451000C9451000C9451000C945100DC
:100060000C9451000C94510011241FBECFEFD8E026
:10007000DEBFCDBF11E0A0E0B1E0E2E7F1E002C0F9
:1000800005900D92AE36B107D9F721E0AEE6B1E0AA
:1000900001C01D92A037B207E1F70E949F000C94A7
:1000A000B7000C9400008091C00087FFFCCF8091C6
:1000B000C60008959091C00095FFFCCF8093C600C4
:1000C000089580916E0181110FC087E690E09093B2
:1000D000C5008093C40080E18093C1008EE08093CE
:1000E000C20081E080936E010895CF93DF93EC010D
:1000F0008991882319F00E945A00FACFDF91CF919D
:10010000089580E0089510926F0108950C945A00AC
:10011000CF93DF93EC018881882331F02097D9F3C6
:1001200021960E945A00F7CFDF91CF9108958AE07F
:100130000C945A000C9453000895089508950E9459
:10014000610080E091E00E94880081E291E00E94DD
:10015000880084E00E949C0081E591E00E94880074
:100160008AE691E00E9488000E949A00F9CFF894F4
:02017000FFCFBF
:10017200546573742041556E6974206F6E2041720C
:100182006475696E6F204E616E6F2076312E300A73
:100192000055736167653A20456E746572203C6E46
:1001A2003E207768657265206E20697320746865E9
:1001B2002074657374206E756D62657220312E2E07
:1001C20000206F722027302720287A65726F29203D
:0E01D200746F20717569742E0A0024200000DD
:00000001FF
