:100000000C9434000C9451000C9451000C94510049
:100010000C9451000C9451000C9451000C9451001C
:100020000C9451000C9451000C9451000C9451000C
:100030000C9451000C9451000C9451000C945100FC
:100040000C9451000C9451000C9451000C945100EC
:100050000C9451000C9451000C9451000C945100DC
:100060000C9451000C94510011241FBECFEFD8E026
:10007000DEBFCDBF12E0A0E0B1E0EAE4F3E002C0F1
:1000800005900D92A031B107D9F722E0A0E1B2E0CE
:1000900001C01D92AB38B207E1F70E9421010C9418
:1000A000A3010C9400008091C00087FFFCCF8091D9
:1000B000C60008959091C00095FFFCCF8093C600C4
:1000C00008958091100281110FC087E690E090930F
:1000D000C5008093C40088E18093C1008EE08093C6
:1000E000C20081E0809310020895FB01019000207E
:1000F000E9F73197AF01461B570B0E94950121E0AC
:10010000892B09F020E0822F089563E672E08BE3EB
:1001100092E00E948C0121E0892B09F020E0822FDF
:1001200008958091120290911102899FC0011124BB
:1001300028E7289FA001299F500D112460E070E05E
:1001400083E192E00E948501109211021092120246
:100150000895CF93C82F0E945A0080911102CA308F
:1001600059F4823020F48F5F8093110202C0109204
:1001700011021092120216C0811104C0C43511F48C
:100180000E94910080911202E091110298E2E99F91
:10019000F0011124ED5EFD4FE80FF11DC0838F5F6C
:1001A00080931202CF9108950C94A900CF93DF930E
:1001B000EC018881882331F02097D9F321960E94A1
:1001C000A900F7CFDF91CF9108958AE00C94A900A0
:1001D0000C9453008F708A3010F0895C01C0805DF0
:1001E0000C94A900CF93C82F82958F700E94EA00CB
:1001F0008C2FCF910C94EA00CF93C82F892F0E94A7
:10020000F2008C2FCF910C94F20088E091E00E94D4
:10021000D60082E291E00E94D60086E291E00C9442
:10022000D6008AE291E00E94D60084E491E00E9428
:10023000D60084E491E00C94D60080530895805D4C
:100240000895CF93DF930E94610087E491E00E94BC
:10025000D60083E691E00E94D60084E00E94EA0086
:1002600083E991E00E94D600C1E0CC2309F442C0AA
:100270008CEA91E00E94D600C0E00E94E800D82FEE
:1002800020ED280F2A3D89F38033B1F130E0C90118
:10029000019784309105F8F4880F991FFC01E05014
:1002A000FF4F0190F081E02D309751F48FEA91E0FB
:1002B0000E94D6008D2F0E94D40086EB91E017C0DB
:1002C00009950E948500882319F084EC91E00FC005
:1002D00087EC91E00CC0253031053CF28AEC91E0CE
:1002E0000E94D60084E30E94D40080EF91E00E9437
:1002F000D600BBCFC1E0C1CF89E092E00E94D6001A
:1003000080E090E0DF91CF910895DC0101C06D9312
:1003100041505040E0F70895FB01DC018D910190C0
:1003200080190110D9F3990B0895FB01DC014150AC
:10033000504030F08D910190801919F40020B9F7E8
:0A034000881B990B0895F894FFCF75
:10034A001101050100000000546573742032202D4C
:10035A002054657374204E756D6265722074776FD0
:10036A000A0032330A0032340A00546573742031A9
:10037A00202D2054657374204E756D626572206F4E
:10038A006E650A00310A0041556E6974206F6E204D
:10039A0041726475696E6F204E616E6F2076312EE0
:1003AA00300A0055736167653A20456E746572209C
:1003BA003C6E3E207768657265206E2069732074F2
:1003CA0068652074657374206E756D62657220317C
:1003DA002E2E00206F722027302720287A65726F10
:1003EA002920746F20717569742E0A002420005424
:1003FA0065737420220022206E6F74207265666510
:10040A00727265642E0A00460A00496E76616C694A
:10041A00642074657374206E756D6265722E20494E
:10042A00742073686F756C6420626520312E2E000B
:10043A00206F722022302220287A65726F29207458
:10044A006F20717569742E0A00627965210A0000AD
:00000001FF
