:100000000C9434000C9451000C9451000C94510049
:100010000C9451000C9451000C9451000C9451001C
:100020000C9451000C9451000C9451000C9451000C
:100030000C9451000C9451000C9451000C945100FC
:100040000C9451000C9451000C9451000C945100EC
:100050000C9451000C9451000C9451000C945100DC
:100060000C9451000C94510011241FBECFEFD8E026
:10007000DEBFCDBF12E0A0E0B1E0E4E4F3E002C0F7
:1000800005900D92A431B107D9F722E0A4E1B2E0C6
:1000900001C01D92AF38B207E1F70E941F010C9416
:1000A000A0010C9400008091C00087FFFCCF8091DC
:1000B000C60008959091C00095FFFCCF8093C600C4
:1000C00008958091140281110FC087E690E090930B
:1000D000C5008093C40088E18093C1008EE08093C6
:1000E000C20081E0809314020895FB01019000207A
:1000F000E9F73197AF01461B570B0E94920121E0AF
:10010000892B09F020E0822F089567E672E08FE3E3
:1001100092E00E94890121E0892B09F020E0822FE2
:1001200008958091160290911502899FC0011124B3
:1001300028E7289FA001299F500D112460E070E05E
:1001400087E192E00E94820110921502109216023D
:100150000895CF93C82F0E945A00CA3069F4809145
:100160001502823020F48F5F8093150202C0109236
:1001700015021092160214C0C43511F40E949100A9
:1001800080911602E091150298E2E99FF001112496
:10019000E95EFD4FE80FF11DC0838F5F809316026B
:1001A000CF9108950C94A900CF93DF93EC0188813F
:1001B000882331F02097D9F321960E94A900F7CF28
:1001C000DF91CF9108958AE00C94A9000C9453001C
:1001D0008F708A3010F0895C01C0805D0C94A9009A
:1001E000CF93C82F82958F700E94E8008C2FCF91FB
:1001F0000C94E800CF93C82F892F0E94F0008C2F19
:10020000CF910C94F00088E091E00E94D40082E24B
:1002100091E00E94D40086E291E00C94D4008AE23E
:1002200091E00E94D40084E491E00E94D40084E430
:1002300091E00C94D40080530895805D0895CF938D
:100240000E94610087E491E00E94D40083E691E07F
:100250000E94D40084E00E94E80083E991E00E94BB
:10026000D400C1E0CC2309F443C08CEA91E00E94A1
:10027000D400C0E00E94E60020ED280F2A3D91F353
:100280008033C1F130E0C90101978430910500F558
:10029000880F991FFC01E050FF4F0190F081E02D85
:1002A000309759F48FEA91E00E94D40086EB91E0F8
:1002B0000E94D40088EB91E018C009950E94850047
:1002C000882319F086EC91E010C089EC91E00DC014
:1002D000253031053CF28CEC91E00E94D40082EF95
:1002E00091E00E94D40084EF91E00E94D400BACF44
:1002F000C1E0C0CF8DE092E00E94D40080E090E0A9
:10030000CF910895DC0101C06D9341505040E0F75A
:100310000895FB01DC018D91019080190110D9F342
:10032000990B0895FB01DC014150504030F08D9154
:100330000190801919F40020B9F7881B990B0895D2
:04034000F894FFCF5F
:100344000F01030100000000546573742032202D56
:100354002054657374204E756D6265722074776FD6
:100364000A0032330A0032340A00546573742031AF
:10037400202D2054657374204E756D626572206F54
:100384006E650A00310A0041556E6974206F6E2053
:1003940041726475696E6F204E616E6F2076312EE6
:1003A400300A0055736167653A20456E74657220A2
:1003B4003C6E3E207768657265206E2069732074F8
:1003C40068652074657374206E756D626572203182
:1003D4002E2E00206F722027302720287A65726F16
:1003E4002920746F20717569742E0A00242000542A
:1003F400657374202200330022206E6F74207265AE
:100404006665727265642E0A00460A00496E76615A
:100414006C69642074657374206E756D6265722EE8
:100424002049742073686F756C6420626520312ED6
:100434002E003400206F722022302220287A657228
:100444006F2920746F20717569742E0A00627965B2
:04045400210A000079
:00000001FF
