:100000000C9434000C9451000C9451000C94510049
:100010000C9451000C9451000C9451000C9451001C
:100020000C9451000C9451000C9451000C9451000C
:100030000C9451000C9451000C9451000C945100FC
:100040000C9451000C9451000C9451000C945100EC
:100050000C9451000C9451000C9451000C945100DC
:100060000C9451000C94510011241FBECFEFD8E026
:10007000DEBFCDBF11E0A0E0B1E0EEEBF2E002C0E8
:1000800005900D92A032B107D9F721E0A0E2B1E0CE
:1000900001C01D92AB39B207E1F70E942E010C940A
:1000A0005D010C940000CF92DF92EF92FF921F93BC
:1000B000CF93DF937C016B0110E0C12FD0E0CC1512
:1000C000DD0568F4812F8F7041F40E940E01CE018E
:1000D0000E94250189E00E94FD001F5FEECFCE0D3A
:1000E000DF1D88810E941B0189E0DF91CF911F9164
:1000F000FF90EF90DF90CF900C94FD008091C000B6
:1001000087FFFCCF8091C60008959091C00095FFB5
:10011000FCCF8093C60008958091200181110FC00B
:1001200087E690E09093C5008093C40088E18093B7
:10013000C1008EE08093C20081E080932001089589
:10014000FB0101900020E9F73197AF01461B570BE7
:100150000E944F0121E0892B09F020E0822F0895B1
:1001600063E771E08BE491E00E94460121E0892B76
:1001700009F020E0822F08958091220190912101C1
:10018000899FC001112428E7289FA001299F500DB5
:10019000112460E070E083E291E00E943F01109240
:1001A0002101109222010895CF93C82F0E9485004B
:1001B000CA3069F480912101823020F48F5F8093EE
:1001C000210102C0109221011092220114C0C435F5
:1001D00011F40E94BC0080912201E091210198E27B
:1001E000E99FF0011124ED5DFE4FE80FF11DC08382
:1001F0008F5F80932201CF9108950C94D400CF9308
:10020000DF93EC018881882331F02097D9F3219680
:100210000E94D400F7CFDF91CF9108958AE00C942B
:10022000D4000C947E008F708A3010F0895C01C07D
:10023000805D0C94D400CF93C82F82958F700E945C
:1002400013018C2FCF910C941301CF93C82F892FBA
:100250000E941B018C2FCF910C941B010E948C00DB
:1002600060E270E080E090E00E94530060E270E0A5
:1002700080E091E00E94530080E090E00895DC016E
:1002800001C06D9341505040E0F70895FB01DC013F
:100290008D91019080190110D9F3990B0895FB01FC
:1002A000DC014150504030F08D910190801919F4DB
:0E02B0000020B9F7881B990B0895F894FFCF32
:1002BE00000102030405060708090A0B0C0D0E0FB8
:1002CE00101112131415161718191A1B1C1D1E1FA8
:00000001FF
