:100000000C9434000C9451000C9451000C94510049
:100010000C9451000C9451000C9451000C9451001C
:100020000C9451000C9451000C9451000C9451000C
:100030000C9451000C9451000C9451000C945100FC
:100040000C9451000C9451000C9451000C945100EC
:100050000C9451000C9451000C9451000C945100DC
:100060000C9451000C94510011241FBECFEFD8E026
:10007000DEBFCDBF11E0A0E0B1E0E2E0F3E002C0FE
:1000800005900D92A037B107D9F721E0A0E7B1E0C4
:1000900001C01D92AB3EB207E1F70E9430010C9403
:1000A0007F010C940000EF92FF920F931F93CF9368
:1000B0007B018C01C0E08C2F90E08E159F05C8F469
:1000C0008C2F8F7061F4C03111F40E941001F8017F
:1000D000808190E00E94270180E20E94FF00F801E9
:1000E00081918F010E941D0180E20E94FF00CF5F7D
:1000F000E2CFCF911F910F91FF90EF900C941001E0
:100100008091C00087FFFCCF8091C6000895909138
:10011000C00095FFFCCF8093C600089580917001C8
:1001200081110FC087E690E09093C5008093C400D2
:1001300088E18093C1008EE08093C20081E08093CB
:1001400070010895FB0101900020E9F73197AF019C
:10015000461B570B0E94710121E0892B09F020E01A
:10016000822F089563EC71E08BE991E00E946801B1
:1001700021E0892B09F020E0822F089580917201FF
:1001800090917101899FC001112428E7289FA00147
:10019000299F500D112460E070E083E791E00E94F8
:1001A000610110927101109272010895CF93C82FCE
:1001B0000E948700CA3069F480917101823020F476
:1001C0008F5F8093710102C01092710110927201D1
:1001D00014C0C43511F40E94BE0080917201E091F8
:1001E000710198E2E99FF0011124ED58FE4FE80FEC
:1001F000F11DC0838F5F80937201CF9108950C949D
:10020000D600CF93DF93EC018881882331F02097CB
:10021000D9F321960E94D600F7CFDF91CF910895B0
:100220008AE00C94D6000C9480008F708A3010F015
:10023000895C01C0805D0C94D600CF93C82F829555
:100240008F700E9415018C2FCF910C941501CF93C4
:10025000C82F892F0E941D018C2FCF910C941D0156
:10026000CF930E948E0080E291E00E94010184E21F
:100270000E94FF000E941301C82F0E94FF000E94ED
:100280001001CD3639F460E270E080E091E00E9428
:1002900053000CC0C13731F48AE591E00E9401019E
:1002A000C0E005C08FE591E00E940101C1E00E941D
:1002B00010010E941001C111D6CF80E090E0CF91D3
:1002C0000895DC0101C06D9341505040E0F708955E
:1002D000FB01DC018D91019080190110D9F3990B7C
:1002E0000895FB01DC014150504030F08D910190A8
:1002F000801919F40020B9F7881B990B0895F89418
:02030000FFCF2D
:10030200000102030405060708090A0B0C0D0E0F73
:10031200101112131415161718191A1B1C1D1E1F63
:100322005368656C6C204E616E6F2076312E300AF8
:1003320055736167653A207479706520276D2728A7
:100342006D656D6F72792920616E64202771272097
:10035200746F20717569742E0A0042796521004913
:100362006E76616C696420636F6D6D616E642E00E0
:00000001FF
