:100000000C9434000C9451000C9451000C94510049
:100010000C9451000C9451000C9451000C9451001C
:100020000C9451000C9451000C9451000C9451000C
:100030000C9451000C9451000C9451000C945100FC
:100040000C9451000C9451000C9451000C945100EC
:100050000C9451000C9451000C9451000C945100DC
:100060000C9451000C94510011241FBECFEFD8E026
:10007000DEBFCDBF11E0A0E0B1E0E6E0F3E002C0FA
:1000800005900D92A035B107D9F721E0A0E5B1E0C8
:1000900001C01D92AB3CB207E1F70E9432010C9403
:1000A00081010C940000CF92DF92EF92FF921F9398
:1000B000CF93DF936C017B0110E0C12FD0E0CE1510
:1000C000DF05B8F4812F8F7051F4103111F40E94C4
:1000D0001201CE010E94290180E20E940101CC0D93
:1000E000DD1D88810E941F0180E20E9401011F5FC7
:1000F000E4CFDF91CF911F91FF90EF90DF90CF90F1
:100100000C9412018091C00087FFFCCF8091C60043
:1001100008959091C00095FFFCCF8093C60008958C
:100120008091500181110FC087E690E09093C50047
:100130008093C40088E18093C1008EE08093C20068
:1001400081E0809350010895FB0101900020E9F7C0
:100150003197AF01461B570B0E94730121E0892B99
:1001600009F020E0822F089563EA71E08BE791E0C7
:100170000E946A0121E0892B09F020E0822F089576
:100180008091520190915101899FC001112428E76B
:10019000289FA001299F500D112460E070E083E5A5
:1001A00091E00E9463011092510110925201089552
:1001B000CF93C82F0E948900CA3069F48091510101
:1001C000823020F48F5F8093510102C01092510160
:1001D0001092520114C0C43511F40E94C0008091E5
:1001E0005201E091510198E2E99FF0011124ED5A8A
:1001F000FE4FE80FF11DC0838F5F80935201CF91B6
:1002000008950C94D800CF93DF93EC018881882364
:1002100031F02097D9F321960E94D800F7CFDF91D3
:10022000CF9108958AE00C94D8000C9482008F70CE
:100230008A3010F0895C01C0805D0C94D800CF93A7
:10024000C82F82958F700E9417018C2FCF910C942C
:100250001701CF93C82F892F0E941F018C2FCF9198
:100260000C941F01CF930E94900080E091E00E94C7
:10027000030184E20E9401010E941501C82F0E941F
:1002800001010E941201CD3639F460E270E080E095
:1002900090E00E9453000CC0C13731F48AE391E032
:1002A0000E940301C0E005C08FE391E00E940301BA
:1002B000C1E00E9412010E941201C111D6CF80E05C
:1002C00090E0CF910895DC0101C06D934150504002
:1002D000E0F70895FB01DC018D9101908019011078
:1002E000D9F3990B0895FB01DC014150504030F0E7
:1002F0008D910190801919F40020B9F7881B990B92
:060300000895F894FFCF00
:100306005368656C6C204E616E6F2076312E300A14
:1003160055736167653A207479706520276D2728C3
:100326006D656D6F72792920616E642027712720B3
:10033600746F20717569742E0A004279652100492F
:100346006E76616C696420636F6D6D616E642E00FC
:00000001FF
