:100000000C9434000C9451000C9451000C94510049
:100010000C9451000C9451000C9451000C9451001C
:100020000C9451000C9451000C9451000C9451000C
:100030000C9451000C9451000C9451000C945100FC
:100040000C9451000C9451000C9451000C945100EC
:100050000C9451000C9451000C9451000C945100DC
:100060000C9451000C94510011241FBECFEFD8E026
:10007000DEBFCDBF11E0A0E0B1E0ECEFF2E002C0E6
:1000800005900D92A235B107D9F721E0A2E5B1E0C4
:1000900001C01D92AD3CB207E1F70E942F010C9404
:1000A0007C010C940000CF92DF92EF92FF921F939D
:1000B000CF93DF936C017B0110E0C12FD0E0CE1510
:1000C000DF05A8F4812F8F7041F40E940F01CE014B
:1000D0000E94260180E20E94FE00CC0DDD1D888179
:1000E0000E941C0180E20E94FE001F5FE6CFDF91AC
:1000F000CF911F91FF90EF90DF90CF900895809166
:10010000C00087FFFCCF8091C60008959091C00089
:1001100095FFFCCF8093C600089580915201811114
:100120000FC087E690E09093C5008093C40088E1FB
:100130008093C1008EE08093C20081E080935201E1
:100140000895FB0101900020E9F73197AF01461BAC
:10015000570B0E946E0121E0892B09F020E0822FCD
:10016000089565EA71E08DE791E00E94650121E064
:10017000892B09F020E0822F0895809154019091FD
:100180005301899FC001112428E7289FA001299FBE
:10019000500D112460E070E085E591E00E945E0161
:1001A00010925301109254010895CF93C82F0E94CA
:1001B0008600CA3069F480915301823020F48F5F49
:1001C0008093530102C0109253011092540114C045
:1001D000C43511F40E94BD0080915401E091530197
:1001E00098E2E99FF0011124EB5AFE4FE80FF11D50
:1001F000C0838F5F80935401CF9108950C94D500F4
:10020000CF93DF93EC018881882331F02097D9F3D5
:1002100021960E94D500F7CFDF91CF9108958AE013
:100220000C94D5000C947F008F708A3010F0895C9C
:1002300001C0805D0C94D500CF93C82F82958F703C
:100240000E9414018C2FCF910C941401CF93C82FCE
:10025000892F0E941C018C2FCF910C941C01CF93ED
:100260000E948D0080E091E00E94000184E20E94E3
:10027000FE000E941201C82F0E94FE00CD3639F404
:1002800060E270E080E090E00E9453000CC0C13753
:1002900031F48AE391E00E940001C0E005C080E4EF
:1002A00091E00E940001C1E00E940F010E940F0135
:1002B000C111D8CF80E090E0CF910895DC0101C05A
:1002C0006D9341505040E0F70895FB01DC018D91A2
:1002D000019080190110D9F3990B0895FB01DC01FD
:1002E0004150504030F08D910190801919F4002058
:0C02F000B9F7881B990B0895F894FFCF14
:1002FC005368656C6C204E616E6F2076312E300A1F
:10030C0055736167653A207479706520276D2728CD
:10031C006D656D6F72792920616E642027712720BD
:10032C00746F20717569742E0A000A427965210078
:10033C000A496E76616C696420636F6D6D616E64E1
:02034C002E0081
:00000001FF
